{"abi":[{"type":"constructor","inputs":[],"stateMutability":"nonpayable"},{"type":"function","name":"agentCards","inputs":[{"name":"","type":"bytes32","internalType":"bytes32"}],"outputs":[{"name":"name","type":"string","internalType":"string"},{"name":"strategyDescription","type":"string","internalType":"string"},{"name":"creator","type":"address","internalType":"address"},{"name":"createdAt","type":"uint256","internalType":"uint256"},{"name":"isActive","type":"bool","internalType":"bool"}],"stateMutability":"view"},{"type":"function","name":"allAgentIds","inputs":[{"name":"","type":"uint256","internalType":"uint256"}],"outputs":[{"name":"","type":"bytes32","internalType":"bytes32"}],"stateMutability":"view"},{"type":"function","name":"creatorAgents","inputs":[{"name":"","type":"address","internalType":"address"},{"name":"","type":"uint256","internalType":"uint256"}],"outputs":[{"name":"","type":"bytes32","internalType":"bytes32"}],"stateMutability":"view"},{"type":"function","name":"deactivateAgent","inputs":[{"name":"agentId","type":"bytes32","internalType":"bytes32"}],"outputs":[],"stateMutability":"nonpayable"},{"type":"function","name":"getAgentCard","inputs":[{"name":"agentId","type":"bytes32","internalType":"bytes32"}],"outputs":[{"name":"","type":"tuple","internalType":"struct IdentityRegistry.AgentCard","components":[{"name":"name","type":"string","internalType":"string"},{"name":"strategyDescription","type":"string","internalType":"string"},{"name":"creator","type":"address","internalType":"address"},{"name":"createdAt","type":"uint256","internalType":"uint256"},{"name":"isActive","type":"bool","internalType":"bool"}]}],"stateMutability":"view"},{"type":"function","name":"getAgentIdByIndex","inputs":[{"name":"index","type":"uint256","internalType":"uint256"}],"outputs":[{"name":"","type":"bytes32","internalType":"bytes32"}],"stateMutability":"view"},{"type":"function","name":"getAgentsByCreator","inputs":[{"name":"creator","type":"address","internalType":"address"}],"outputs":[{"name":"","type":"bytes32[]","internalType":"bytes32[]"}],"stateMutability":"view"},{"type":"function","name":"getTotalAgents","inputs":[],"outputs":[{"name":"","type":"uint256","internalType":"uint256"}],"stateMutability":"view"},{"type":"function","name":"isAgentActive","inputs":[{"name":"agentId","type":"bytes32","internalType":"bytes32"}],"outputs":[{"name":"","type":"bool","internalType":"bool"}],"stateMutability":"view"},{"type":"function","name":"owner","inputs":[],"outputs":[{"name":"","type":"address","internalType":"address"}],"stateMutability":"view"},{"type":"function","name":"registerAgent","inputs":[{"name":"agentId","type":"bytes32","internalType":"bytes32"},{"name":"name","type":"string","internalType":"string"},{"name":"strategyDescription","type":"string","internalType":"string"}],"outputs":[],"stateMutability":"nonpayable"},{"type":"function","name":"renounceOwnership","inputs":[],"outputs":[],"stateMutability":"nonpayable"},{"type":"function","name":"transferOwnership","inputs":[{"name":"newOwner","type":"address","internalType":"address"}],"outputs":[],"stateMutability":"nonpayable"},{"type":"function","name":"updateAgent","inputs":[{"name":"agentId","type":"bytes32","internalType":"bytes32"},{"name":"name","type":"string","internalType":"string"},{"name":"strategyDescription","type":"string","internalType":"string"}],"outputs":[],"stateMutability":"nonpayable"},{"type":"event","name":"AgentDeactivated","inputs":[{"name":"agentId","type":"bytes32","indexed":true,"internalType":"bytes32"}],"anonymous":false},{"type":"event","name":"AgentRegistered","inputs":[{"name":"agentId","type":"bytes32","indexed":true,"internalType":"bytes32"},{"name":"name","type":"string","indexed":false,"internalType":"string"},{"name":"strategyDescription","type":"string","indexed":false,"internalType":"string"},{"name":"creator","type":"address","indexed":true,"internalType":"address"}],"anonymous":false},{"type":"event","name":"AgentUpdated","inputs":[{"name":"agentId","type":"bytes32","indexed":true,"internalType":"bytes32"},{"name":"name","type":"string","indexed":false,"internalType":"string"},{"name":"strategyDescription","type":"string","indexed":false,"internalType":"string"}],"anonymous":false},{"type":"event","name":"OwnershipTransferred","inputs":[{"name":"previousOwner","type":"address","indexed":true,"internalType":"address"},{"name":"newOwner","type":"address","indexed":true,"internalType":"address"}],"anonymous":false},{"type":"error","name":"OwnableInvalidOwner","inputs":[{"name":"owner","type":"address","internalType":"address"}]},{"type":"error","name":"OwnableUnauthorizedAccount","inputs":[{"name":"account","type":"address","internalType":"address"}]},{"type":"error","name":"ReentrancyGuardReentrantCall","inputs":[]}],"bytecode":{"object":"0x608060405234801561000f575f5ffd5b50335f73ffffffffffffffffffffffffffffffffffffffff168173ffffffffffffffffffffffffffffffffffffffff1603610081575f6040517f1e4fbdf700000000000000000000000000000000000000000000000000000000815260040161007891906101ec565b60405180910390fd5b610090816100ba60201b60201c565b5060016100af6100a461017b60201b60201c565b6101a460201b60201c565b5f0181905550610205565b5f5f5f9054906101000a900473ffffffffffffffffffffffffffffffffffffffff169050815f5f6101000a81548173ffffffffffffffffffffffffffffffffffffffff021916908373ffffffffffffffffffffffffffffffffffffffff1602179055508173ffffffffffffffffffffffffffffffffffffffff168173ffffffffffffffffffffffffffffffffffffffff167f8be0079c531659141344cd1fd0a4f28419497f9722a3daafe3b4186f6b6457e060405160405180910390a35050565b5f7f9b779b17422d0df92223018b32b4d1fa46e071723d6817e2486d003becc55f005f1b905090565b5f819050919050565b5f73ffffffffffffffffffffffffffffffffffffffff82169050919050565b5f6101d6826101ad565b9050919050565b6101e6816101cc565b82525050565b5f6020820190506101ff5f8301846101dd565b92915050565b61217e806102125f395ff3fe608060405234801561000f575f5ffd5b50600436106100e8575f3560e01c80638a92792b1161008a57806398be7c8d1161006457806398be7c8d1461025e578063a13b7e1f1461028e578063e246578c146102aa578063f2fde38b146102da576100e8565b80638a92792b146101e05780638b2624a9146102105780638da5cb5b14610240576100e8565b806359b5acf3116100c657806359b5acf31461015a578063715018a6146101765780637340b1541461018057806378f5d444146101b0576100e8565b8063292503a7146100ec5780633731a16f1461010857806354a4f44214610126575b5f5ffd5b610106600480360381019061010191906113cd565b6102f6565b005b6101106106cb565b60405161011d9190611476565b60405180910390f35b610140600480360381019061013b919061148f565b6106d7565b604051610151959493929190611583565b60405180910390f35b610174600480360381019061016f919061148f565b610840565b005b61017e6109ac565b005b61019a60048036038101906101959190611636565b6109bf565b6040516101a79190611683565b60405180910390f35b6101ca60048036038101906101c5919061169c565b6109ea565b6040516101d79190611683565b60405180910390f35b6101fa60048036038101906101f5919061148f565b610a56565b60405161020791906116c7565b60405180910390f35b61022a6004803603810190610225919061148f565b610aea565b60405161023791906117cf565b60405180910390f35b610248610d4e565b60405161025591906117ef565b60405180910390f35b6102786004803603810190610273919061169c565b610d75565b6040516102859190611683565b60405180910390f35b6102a860048036038101906102a391906113cd565b610d95565b005b6102c460048036038101906102bf9190611808565b610fbc565b6040516102d191906118ea565b60405180910390f35b6102f460048036038101906102ef9190611808565b61104f565b005b6102fe6110d3565b5f5f1b8503610342576040517f08c379a000000000000000000000000000000000000000000000000000000000815260040161033990611954565b60405180910390fd5b5f8484905011610387576040517f08c379a000000000000000000000000000000000000000000000000000000000815260040161037e906119bc565b60405180910390fd5b5f82829050116103cc576040517f08c379a00000000000000000000000000000000000000000000000000000000081526004016103c390611a4a565b60405180910390fd5b5f73ffffffffffffffffffffffffffffffffffffffff1660015f8781526020019081526020015f206002015f9054906101000a900473ffffffffffffffffffffffffffffffffffffffff1673ffffffffffffffffffffffffffffffffffffffff161461046d576040517f08c379a000000000000000000000000000000000000000000000000000000000815260040161046490611ab2565b60405180910390fd5b6040518060a0016040528085858080601f0160208091040260200160405190810160405280939291908181526020018383808284375f81840152601f19601f82011690508083019250505050505050815260200183838080601f0160208091040260200160405190810160405280939291908181526020018383808284375f81840152601f19601f8201169050808301925050505050505081526020013373ffffffffffffffffffffffffffffffffffffffff1681526020014281526020016001151581525060015f8781526020019081526020015f205f820151815f0190816105579190611cfa565b50602082015181600101908161056d9190611cfa565b506040820151816002015f6101000a81548173ffffffffffffffffffffffffffffffffffffffff021916908373ffffffffffffffffffffffffffffffffffffffff160217905550606082015181600301556080820151816004015f6101000a81548160ff02191690831515021790555090505060025f3373ffffffffffffffffffffffffffffffffffffffff1673ffffffffffffffffffffffffffffffffffffffff1681526020019081526020015f2085908060018154018082558091505060019003905f5260205f20015f9091909190915055600385908060018154018082558091505060019003905f5260205f20015f90919091909150553373ffffffffffffffffffffffffffffffffffffffff16857fa34af9627380d3c40f414e44befff0d6192015ac659f3a4f8aa3dfe64cff1777868686866040516106b49493929190611e03565b60405180910390a36106c46110f5565b5050505050565b5f600380549050905090565b6001602052805f5260405f205f91509050805f0180546106f690611b2a565b80601f016020809104026020016040519081016040528092919081815260200182805461072290611b2a565b801561076d5780601f106107445761010080835404028352916020019161076d565b820191905f5260205f20905b81548152906001019060200180831161075057829003601f168201915b50505050509080600101805461078290611b2a565b80601f01602080910402602001604051908101604052809291908181526020018280546107ae90611b2a565b80156107f95780601f106107d0576101008083540402835291602001916107f9565b820191905f5260205f20905b8154815290600101906020018083116107dc57829003601f168201915b505050505090806002015f9054906101000a900473ffffffffffffffffffffffffffffffffffffffff1690806003015490806004015f9054906101000a900460ff16905085565b6108486110d3565b3373ffffffffffffffffffffffffffffffffffffffff1660015f8381526020019081526020015f206002015f9054906101000a900473ffffffffffffffffffffffffffffffffffffffff1673ffffffffffffffffffffffffffffffffffffffff16146108e9576040517f08c379a00000000000000000000000000000000000000000000000000000000081526004016108e090611e86565b60405180910390fd5b60015f8281526020019081526020015f206004015f9054906101000a900460ff16610949576040517f08c379a000000000000000000000000000000000000000000000000000000000815260040161094090611eee565b60405180910390fd5b5f60015f8381526020019081526020015f206004015f6101000a81548160ff021916908315150217905550807f83fa9a5555770ebb043d9ef83dd2d496875b8a91e0b595e5ce06520ba75187ad60405160405180910390a26109a96110f5565b50565b6109b461110f565b6109bd5f611196565b565b6002602052815f5260405f2081815481106109d8575f80fd5b905f5260205f20015f91509150505481565b5f6003805490508210610a32576040517f08c379a0000000000000000000000000000000000000000000000000000000008152600401610a2990611f56565b60405180910390fd5b60038281548110610a4657610a45611f74565b5b905f5260205f2001549050919050565b5f5f73ffffffffffffffffffffffffffffffffffffffff1660015f8481526020019081526020015f206002015f9054906101000a900473ffffffffffffffffffffffffffffffffffffffff1673ffffffffffffffffffffffffffffffffffffffff1614158015610ae3575060015f8381526020019081526020015f206004015f9054906101000a900460ff165b9050919050565b610af26112ed565b5f73ffffffffffffffffffffffffffffffffffffffff1660015f8481526020019081526020015f206002015f9054906101000a900473ffffffffffffffffffffffffffffffffffffffff1673ffffffffffffffffffffffffffffffffffffffff1603610b93576040517f08c379a0000000000000000000000000000000000000000000000000000000008152600401610b8a90611feb565b60405180910390fd5b60015f8381526020019081526020015f206040518060a00160405290815f82018054610bbe90611b2a565b80601f0160208091040260200160405190810160405280929190818152602001828054610bea90611b2a565b8015610c355780601f10610c0c57610100808354040283529160200191610c35565b820191905f5260205f20905b815481529060010190602001808311610c1857829003601f168201915b50505050508152602001600182018054610c4e90611b2a565b80601f0160208091040260200160405190810160405280929190818152602001828054610c7a90611b2a565b8015610cc55780601f10610c9c57610100808354040283529160200191610cc5565b820191905f5260205f20905b815481529060010190602001808311610ca857829003601f168201915b50505050508152602001600282015f9054906101000a900473ffffffffffffffffffffffffffffffffffffffff1673ffffffffffffffffffffffffffffffffffffffff1673ffffffffffffffffffffffffffffffffffffffff16815260200160038201548152602001600482015f9054906101000a900460ff1615151515815250509050919050565b5f5f5f9054906101000a900473ffffffffffffffffffffffffffffffffffffffff16905090565b60038181548110610d84575f80fd5b905f5260205f20015f915090505481565b610d9d6110d3565b3373ffffffffffffffffffffffffffffffffffffffff1660015f8781526020019081526020015f206002015f9054906101000a900473ffffffffffffffffffffffffffffffffffffffff1673ffffffffffffffffffffffffffffffffffffffff1614610e3e576040517f08c379a0000000000000000000000000000000000000000000000000000000008152600401610e3590611e86565b60405180910390fd5b60015f8681526020019081526020015f206004015f9054906101000a900460ff16610e9e576040517f08c379a0000000000000000000000000000000000000000000000000000000008152600401610e9590612053565b60405180910390fd5b5f8484905011610ee3576040517f08c379a0000000000000000000000000000000000000000000000000000000008152600401610eda906119bc565b60405180910390fd5b5f8282905011610f28576040517f08c379a0000000000000000000000000000000000000000000000000000000008152600401610f1f90611a4a565b60405180910390fd5b838360015f8881526020019081526020015f205f019182610f4a92919061207b565b50818160015f8881526020019081526020015f206001019182610f6e92919061207b565b50847f72b967eb6938044d73732078952fff9580ce9ec98bf5a5cae3b05c05368ac54585858585604051610fa59493929190611e03565b60405180910390a2610fb56110f5565b5050505050565b606060025f8373ffffffffffffffffffffffffffffffffffffffff1673ffffffffffffffffffffffffffffffffffffffff1681526020019081526020015f2080548060200260200160405190810160405280929190818152602001828054801561104357602002820191905f5260205f20905b81548152602001906001019080831161102f575b50505050509050919050565b61105761110f565b5f73ffffffffffffffffffffffffffffffffffffffff168173ffffffffffffffffffffffffffffffffffffffff16036110c7575f6040517f1e4fbdf70000000000000000000000000000000000000000000000000000000081526004016110be91906117ef565b60405180910390fd5b6110d081611196565b50565b6110db611257565b60026110ed6110e8611298565b6112c1565b5f0181905550565b6001611107611102611298565b6112c1565b5f0181905550565b6111176112ca565b73ffffffffffffffffffffffffffffffffffffffff16611135610d4e565b73ffffffffffffffffffffffffffffffffffffffff1614611194576111586112ca565b6040517f118cdaa700000000000000000000000000000000000000000000000000000000815260040161118b91906117ef565b60405180910390fd5b565b5f5f5f9054906101000a900473ffffffffffffffffffffffffffffffffffffffff169050815f5f6101000a81548173ffffffffffffffffffffffffffffffffffffffff021916908373ffffffffffffffffffffffffffffffffffffffff1602179055508173ffffffffffffffffffffffffffffffffffffffff168173ffffffffffffffffffffffffffffffffffffffff167f8be0079c531659141344cd1fd0a4f28419497f9722a3daafe3b4186f6b6457e060405160405180910390a35050565b61125f6112d1565b15611296576040517f3ee5aeb500000000000000000000000000000000000000000000000000000000815260040160405180910390fd5b565b5f7f9b779b17422d0df92223018b32b4d1fa46e071723d6817e2486d003becc55f005f1b905090565b5f819050919050565b5f33905090565b5f60026112e46112df611298565b6112c1565b5f015414905090565b6040518060a0016040528060608152602001606081526020015f73ffffffffffffffffffffffffffffffffffffffff1681526020015f81526020015f151581525090565b5f5ffd5b5f5ffd5b5f819050919050565b61134b81611339565b8114611355575f5ffd5b50565b5f8135905061136681611342565b92915050565b5f5ffd5b5f5ffd5b5f5ffd5b5f5f83601f84011261138d5761138c61136c565b5b8235905067ffffffffffffffff8111156113aa576113a9611370565b5b6020830191508360018202830111156113c6576113c5611374565b5b9250929050565b5f5f5f5f5f606086880312156113e6576113e5611331565b5b5f6113f388828901611358565b955050602086013567ffffffffffffffff81111561141457611413611335565b5b61142088828901611378565b9450945050604086013567ffffffffffffffff81111561144357611442611335565b5b61144f88828901611378565b92509250509295509295909350565b5f819050919050565b6114708161145e565b82525050565b5f6020820190506114895f830184611467565b92915050565b5f602082840312156114a4576114a3611331565b5b5f6114b184828501611358565b91505092915050565b5f81519050919050565b5f82825260208201905092915050565b8281835e5f83830152505050565b5f601f19601f8301169050919050565b5f6114fc826114ba565b61150681856114c4565b93506115168185602086016114d4565b61151f816114e2565b840191505092915050565b5f73ffffffffffffffffffffffffffffffffffffffff82169050919050565b5f6115538261152a565b9050919050565b61156381611549565b82525050565b5f8115159050919050565b61157d81611569565b82525050565b5f60a0820190508181035f83015261159b81886114f2565b905081810360208301526115af81876114f2565b90506115be604083018661155a565b6115cb6060830185611467565b6115d86080830184611574565b9695505050505050565b6115eb81611549565b81146115f5575f5ffd5b50565b5f81359050611606816115e2565b92915050565b6116158161145e565b811461161f575f5ffd5b50565b5f813590506116308161160c565b92915050565b5f5f6040838503121561164c5761164b611331565b5b5f611659858286016115f8565b925050602061166a85828601611622565b9150509250929050565b61167d81611339565b82525050565b5f6020820190506116965f830184611674565b92915050565b5f602082840312156116b1576116b0611331565b5b5f6116be84828501611622565b91505092915050565b5f6020820190506116da5f830184611574565b92915050565b5f82825260208201905092915050565b5f6116fa826114ba565b61170481856116e0565b93506117148185602086016114d4565b61171d816114e2565b840191505092915050565b61173181611549565b82525050565b6117408161145e565b82525050565b61174f81611569565b82525050565b5f60a083015f8301518482035f86015261176f82826116f0565b9150506020830151848203602086015261178982826116f0565b915050604083015161179e6040860182611728565b5060608301516117b16060860182611737565b5060808301516117c46080860182611746565b508091505092915050565b5f6020820190508181035f8301526117e78184611755565b905092915050565b5f6020820190506118025f83018461155a565b92915050565b5f6020828403121561181d5761181c611331565b5b5f61182a848285016115f8565b91505092915050565b5f81519050919050565b5f82825260208201905092915050565b5f819050602082019050919050565b61186581611339565b82525050565b5f611876838361185c565b60208301905092915050565b5f602082019050919050565b5f61189882611833565b6118a2818561183d565b93506118ad8361184d565b805f5b838110156118dd5781516118c4888261186b565b97506118cf83611882565b9250506001810190506118b0565b5085935050505092915050565b5f6020820190508181035f830152611902818461188e565b905092915050565b7f496e76616c6964206167656e74204944000000000000000000000000000000005f82015250565b5f61193e6010836114c4565b91506119498261190a565b602082019050919050565b5f6020820190508181035f83015261196b81611932565b9050919050565b7f4e616d652063616e6e6f7420626520656d7074790000000000000000000000005f82015250565b5f6119a66014836114c4565b91506119b182611972565b602082019050919050565b5f6020820190508181035f8301526119d38161199a565b9050919050565b7f5374726174656779206465736372697074696f6e2063616e6e6f7420626520655f8201527f6d70747900000000000000000000000000000000000000000000000000000000602082015250565b5f611a346024836114c4565b9150611a3f826119da565b604082019050919050565b5f6020820190508181035f830152611a6181611a28565b9050919050565b7f4167656e7420616c7265616479206578697374730000000000000000000000005f82015250565b5f611a9c6014836114c4565b9150611aa782611a68565b602082019050919050565b5f6020820190508181035f830152611ac981611a90565b9050919050565b7f4e487b71000000000000000000000000000000000000000000000000000000005f52604160045260245ffd5b7f4e487b71000000000000000000000000000000000000000000000000000000005f52602260045260245ffd5b5f6002820490506001821680611b4157607f821691505b602082108103611b5457611b53611afd565b5b50919050565b5f819050815f5260205f209050919050565b5f6020601f8301049050919050565b5f82821b905092915050565b5f60088302611bb67fffffffffffffffffffffffffffffffffffffffffffffffffffffffffffffffff82611b7b565b611bc08683611b7b565b95508019841693508086168417925050509392505050565b5f819050919050565b5f611bfb611bf6611bf18461145e565b611bd8565b61145e565b9050919050565b5f819050919050565b611c1483611be1565b611c28611c2082611c02565b848454611b87565b825550505050565b5f5f905090565b611c3f611c30565b611c4a818484611c0b565b505050565b5b81811015611c6d57611c625f82611c37565b600181019050611c50565b5050565b601f821115611cb257611c8381611b5a565b611c8c84611b6c565b81016020851015611c9b578190505b611caf611ca785611b6c565b830182611c4f565b50505b505050565b5f82821c905092915050565b5f611cd25f1984600802611cb7565b1980831691505092915050565b5f611cea8383611cc3565b9150826002028217905092915050565b611d03826114ba565b67ffffffffffffffff811115611d1c57611d1b611ad0565b5b611d268254611b2a565b611d31828285611c71565b5f60209050601f831160018114611d62575f8415611d50578287015190505b611d5a8582611cdf565b865550611dc1565b601f198416611d7086611b5a565b5f5b82811015611d9757848901518255600182019150602085019450602081019050611d72565b86831015611db45784890151611db0601f891682611cc3565b8355505b6001600288020188555050505b505050505050565b828183375f83830152505050565b5f611de283856114c4565b9350611def838584611dc9565b611df8836114e2565b840190509392505050565b5f6040820190508181035f830152611e1c818688611dd7565b90508181036020830152611e31818486611dd7565b905095945050505050565b7f4e6f7420746865206167656e742063726561746f7200000000000000000000005f82015250565b5f611e706015836114c4565b9150611e7b82611e3c565b602082019050919050565b5f6020820190508181035f830152611e9d81611e64565b9050919050565b7f4167656e7420697320616c726561647920696e616374697665000000000000005f82015250565b5f611ed86019836114c4565b9150611ee382611ea4565b602082019050919050565b5f6020820190508181035f830152611f0581611ecc565b9050919050565b7f496e646578206f7574206f6620626f756e6473000000000000000000000000005f82015250565b5f611f406013836114c4565b9150611f4b82611f0c565b602082019050919050565b5f6020820190508181035f830152611f6d81611f34565b9050919050565b7f4e487b71000000000000000000000000000000000000000000000000000000005f52603260045260245ffd5b7f4167656e7420646f6573206e6f742065786973740000000000000000000000005f82015250565b5f611fd56014836114c4565b9150611fe082611fa1565b602082019050919050565b5f6020820190508181035f83015261200281611fc9565b9050919050565b7f4167656e74206973206e6f7420616374697665000000000000000000000000005f82015250565b5f61203d6013836114c4565b915061204882612009565b602082019050919050565b5f6020820190508181035f83015261206a81612031565b9050919050565b5f82905092915050565b6120858383612071565b67ffffffffffffffff81111561209e5761209d611ad0565b5b6120a88254611b2a565b6120b3828285611c71565b5f601f8311600181146120e0575f84156120ce578287013590505b6120d88582611cdf565b86555061213f565b601f1984166120ee86611b5a565b5f5b82811015612115578489013582556001820191506020850194506020810190506120f0565b86831015612132578489013561212e601f891682611cc3565b8355505b6001600288020188555050505b5050505050505056fea26469706673582212209f3613a4bef7ad1435fbabd8aac7bc9c47b3f40337bd856db0af86f127df570164736f6c634300081e0033","linkReferences":{}},"methodIdentifiers":{"agentCards(bytes32)":"54a4f442","allAgentIds(uint256)":"98be7c8d","creatorAgents(address,uint256)":"7340b154","deactivateAgent(bytes32)":"59b5acf3","getAgentCard(bytes32)":"8b2624a9","getAgentIdByIndex(uint256)":"78f5d444","getAgentsByCreator(address)":"e246578c","getTotalAgents()":"3731a16f","isAgentActive(bytes32)":"8a92792b","owner()":"8da5cb5b","registerAgent(bytes32,string,string)":"292503a7","renounceOwnership()":"715018a6","transferOwnership(address)":"f2fde38b","updateAgent(bytes32,string,string)":"a13b7e1f"},"id":31}