{"abi":[{"type":"constructor","inputs":[{"name":"_identityRegistry","type":"address","internalType":"address"},{"name":"_validationRegistry","type":"address","internalType":"address"},{"name":"_aaveThresholdApy","type":"uint256","internalType":"uint256"},{"name":"_aaveToken","type":"address","internalType":"address"},{"name":"_uniswapToken","type":"address","internalType":"address"}],"stateMutability":"nonpayable"},{"type":"function","name":"IDENTITY_REGISTRY","inputs":[],"outputs":[{"name":"","type":"address","internalType":"contract IdentityRegistry"}],"stateMutability":"view"},{"type":"function","name":"VALIDATION_REGISTRY","inputs":[],"outputs":[{"name":"","type":"address","internalType":"contract ValidationRegistry"}],"stateMutability":"view"},{"type":"function","name":"agentExecutions","inputs":[{"name":"","type":"bytes32","internalType":"bytes32"},{"name":"","type":"uint256","internalType":"uint256"}],"outputs":[{"name":"agentId","type":"bytes32","internalType":"bytes32"},{"name":"timestamp","type":"uint256","internalType":"uint256"},{"name":"aaveApy","type":"uint256","internalType":"uint256"},{"name":"movedToAave","type":"bool","internalType":"bool"},{"name":"amount","type":"uint256","internalType":"uint256"},{"name":"proofId","type":"bytes32","internalType":"bytes32"}],"stateMutability":"view"},{"type":"function","name":"allExecutions","inputs":[{"name":"","type":"uint256","internalType":"uint256"}],"outputs":[{"name":"agentId","type":"bytes32","internalType":"bytes32"},{"name":"timestamp","type":"uint256","internalType":"uint256"},{"name":"aaveApy","type":"uint256","internalType":"uint256"},{"name":"movedToAave","type":"bool","internalType":"bool"},{"name":"amount","type":"uint256","internalType":"uint256"},{"name":"proofId","type":"bytes32","internalType":"bytes32"}],"stateMutability":"view"},{"type":"function","name":"executeStrategy","inputs":[{"name":"agentId","type":"bytes32","internalType":"bytes32"},{"name":"amount","type":"uint256","internalType":"uint256"},{"name":"proofId","type":"bytes32","internalType":"bytes32"}],"outputs":[],"stateMutability":"nonpayable"},{"type":"function","name":"getAgentExecutions","inputs":[{"name":"agentId","type":"bytes32","internalType":"bytes32"}],"outputs":[{"name":"","type":"tuple[]","internalType":"struct RoboAdvisor.StrategyExecution[]","components":[{"name":"agentId","type":"bytes32","internalType":"bytes32"},{"name":"timestamp","type":"uint256","internalType":"uint256"},{"name":"aaveApy","type":"uint256","internalType":"uint256"},{"name":"movedToAave","type":"bool","internalType":"bool"},{"name":"amount","type":"uint256","internalType":"uint256"},{"name":"proofId","type":"bytes32","internalType":"bytes32"}]}],"stateMutability":"view"},{"type":"function","name":"getCurrentApyInfo","inputs":[],"outputs":[{"name":"aaveApy","type":"uint256","internalType":"uint256"},{"name":"uniswapApy","type":"uint256","internalType":"uint256"},{"name":"thresholdApy","type":"uint256","internalType":"uint256"}],"stateMutability":"view"},{"type":"function","name":"getCurrentStrategyDecision","inputs":[],"outputs":[{"name":"","type":"bool","internalType":"bool"}],"stateMutability":"view"},{"type":"function","name":"getExecutionByIndex","inputs":[{"name":"index","type":"uint256","internalType":"uint256"}],"outputs":[{"name":"","type":"tuple","internalType":"struct RoboAdvisor.StrategyExecution","components":[{"name":"agentId","type":"bytes32","internalType":"bytes32"},{"name":"timestamp","type":"uint256","internalType":"uint256"},{"name":"aaveApy","type":"uint256","internalType":"uint256"},{"name":"movedToAave","type":"bool","internalType":"bool"},{"name":"amount","type":"uint256","internalType":"uint256"},{"name":"proofId","type":"bytes32","internalType":"bytes32"}]}],"stateMutability":"view"},{"type":"function","name":"getLatestExecution","inputs":[{"name":"agentId","type":"bytes32","internalType":"bytes32"}],"outputs":[{"name":"","type":"tuple","internalType":"struct RoboAdvisor.StrategyExecution","components":[{"name":"agentId","type":"bytes32","internalType":"bytes32"},{"name":"timestamp","type":"uint256","internalType":"uint256"},{"name":"aaveApy","type":"uint256","internalType":"uint256"},{"name":"movedToAave","type":"bool","internalType":"bool"},{"name":"amount","type":"uint256","internalType":"uint256"},{"name":"proofId","type":"bytes32","internalType":"bytes32"}]}],"stateMutability":"view"},{"type":"function","name":"getTotalExecutions","inputs":[],"outputs":[{"name":"","type":"uint256","internalType":"uint256"}],"stateMutability":"view"},{"type":"function","name":"mockAaveApy","inputs":[],"outputs":[{"name":"","type":"uint256","internalType":"uint256"}],"stateMutability":"view"},{"type":"function","name":"mockUniswapApy","inputs":[],"outputs":[{"name":"","type":"uint256","internalType":"uint256"}],"stateMutability":"view"},{"type":"function","name":"owner","inputs":[],"outputs":[{"name":"","type":"address","internalType":"address"}],"stateMutability":"view"},{"type":"function","name":"renounceOwnership","inputs":[],"outputs":[],"stateMutability":"nonpayable"},{"type":"function","name":"strategyConfig","inputs":[],"outputs":[{"name":"aaveThresholdApy","type":"uint256","internalType":"uint256"},{"name":"aaveToken","type":"address","internalType":"address"},{"name":"uniswapToken","type":"address","internalType":"address"},{"name":"isActive","type":"bool","internalType":"bool"}],"stateMutability":"view"},{"type":"function","name":"toggleStrategyActive","inputs":[],"outputs":[],"stateMutability":"nonpayable"},{"type":"function","name":"transferOwnership","inputs":[{"name":"newOwner","type":"address","internalType":"address"}],"outputs":[],"stateMutability":"nonpayable"},{"type":"function","name":"updateMockApy","inputs":[{"name":"_aaveApy","type":"uint256","internalType":"uint256"},{"name":"_uniswapApy","type":"uint256","internalType":"uint256"}],"outputs":[],"stateMutability":"nonpayable"},{"type":"function","name":"updateStrategyConfig","inputs":[{"name":"_aaveThresholdApy","type":"uint256","internalType":"uint256"},{"name":"_aaveToken","type":"address","internalType":"address"},{"name":"_uniswapToken","type":"address","internalType":"address"}],"outputs":[],"stateMutability":"nonpayable"},{"type":"event","name":"MockAPYUpdated","inputs":[{"name":"aaveApy","type":"uint256","indexed":false,"internalType":"uint256"},{"name":"uniswapApy","type":"uint256","indexed":false,"internalType":"uint256"}],"anonymous":false},{"type":"event","name":"OwnershipTransferred","inputs":[{"name":"previousOwner","type":"address","indexed":true,"internalType":"address"},{"name":"newOwner","type":"address","indexed":true,"internalType":"address"}],"anonymous":false},{"type":"event","name":"StrategyConfigUpdated","inputs":[{"name":"aaveThresholdApy","type":"uint256","indexed":false,"internalType":"uint256"},{"name":"aaveToken","type":"address","indexed":false,"internalType":"address"},{"name":"uniswapToken","type":"address","indexed":false,"internalType":"address"}],"anonymous":false},{"type":"event","name":"StrategyExecuted","inputs":[{"name":"agentId","type":"bytes32","indexed":true,"internalType":"bytes32"},{"name":"aaveApy","type":"uint256","indexed":false,"internalType":"uint256"},{"name":"movedToAave","type":"bool","indexed":false,"internalType":"bool"},{"name":"amount","type":"uint256","indexed":false,"internalType":"uint256"},{"name":"proofId","type":"bytes32","indexed":true,"internalType":"bytes32"}],"anonymous":false},{"type":"error","name":"OwnableInvalidOwner","inputs":[{"name":"owner","type":"address","internalType":"address"}]},{"type":"error","name":"OwnableUnauthorizedAccount","inputs":[{"name":"account","type":"address","internalType":"address"}]},{"type":"error","name":"ReentrancyGuardReentrantCall","inputs":[]}],"bytecode":{"object":"0x60c060405261025860065561012c60075534801561001b575f5ffd5b506040516124b93803806124b9833981810160405281019061003d9190610599565b335f73ffffffffffffffffffffffffffffffffffffffff168173ffffffffffffffffffffffffffffffffffffffff16036100ae575f6040517f1e4fbdf70000000000000000000000000000000000000000000000000000000081526004016100a5919061061f565b60405180910390fd5b6100bd8161041560201b60201c565b5060016100dc6100d16104d660201b60201c565b6104ff60201b60201c565b5f01819055505f73ffffffffffffffffffffffffffffffffffffffff168573ffffffffffffffffffffffffffffffffffffffff1603610150576040517f08c379a000000000000000000000000000000000000000000000000000000000815260040161014790610692565b60405180910390fd5b5f73ffffffffffffffffffffffffffffffffffffffff168473ffffffffffffffffffffffffffffffffffffffff16036101be576040517f08c379a00000000000000000000000000000000000000000000000000000000081526004016101b5906106fa565b60405180910390fd5b5f73ffffffffffffffffffffffffffffffffffffffff168273ffffffffffffffffffffffffffffffffffffffff160361022c576040517f08c379a000000000000000000000000000000000000000000000000000000000815260040161022390610762565b60405180910390fd5b5f73ffffffffffffffffffffffffffffffffffffffff168173ffffffffffffffffffffffffffffffffffffffff160361029a576040517f08c379a0000000000000000000000000000000000000000000000000000000008152600401610291906107ca565b60405180910390fd5b8473ffffffffffffffffffffffffffffffffffffffff1660808173ffffffffffffffffffffffffffffffffffffffff16815250508373ffffffffffffffffffffffffffffffffffffffff1660a08173ffffffffffffffffffffffffffffffffffffffff168152505060405180608001604052808481526020018373ffffffffffffffffffffffffffffffffffffffff1681526020018273ffffffffffffffffffffffffffffffffffffffff1681526020016001151581525060015f820151815f01556020820151816001015f6101000a81548173ffffffffffffffffffffffffffffffffffffffff021916908373ffffffffffffffffffffffffffffffffffffffff1602179055506040820151816002015f6101000a81548173ffffffffffffffffffffffffffffffffffffffff021916908373ffffffffffffffffffffffffffffffffffffffff16021790555060608201518160020160146101000a81548160ff02191690831515021790555090505050505050506107e8565b5f5f5f9054906101000a900473ffffffffffffffffffffffffffffffffffffffff169050815f5f6101000a81548173ffffffffffffffffffffffffffffffffffffffff021916908373ffffffffffffffffffffffffffffffffffffffff1602179055508173ffffffffffffffffffffffffffffffffffffffff168173ffffffffffffffffffffffffffffffffffffffff167f8be0079c531659141344cd1fd0a4f28419497f9722a3daafe3b4186f6b6457e060405160405180910390a35050565b5f7f9b779b17422d0df92223018b32b4d1fa46e071723d6817e2486d003becc55f005f1b905090565b5f819050919050565b5f5ffd5b5f73ffffffffffffffffffffffffffffffffffffffff82169050919050565b5f6105358261050c565b9050919050565b6105458161052b565b811461054f575f5ffd5b50565b5f815190506105608161053c565b92915050565b5f819050919050565b61057881610566565b8114610582575f5ffd5b50565b5f815190506105938161056f565b92915050565b5f5f5f5f5f60a086880312156105b2576105b1610508565b5b5f6105bf88828901610552565b95505060206105d088828901610552565b94505060406105e188828901610585565b93505060606105f288828901610552565b925050608061060388828901610552565b9150509295509295909350565b6106198161052b565b82525050565b5f6020820190506106325f830184610610565b92915050565b5f82825260208201905092915050565b7f496e76616c6964206964656e74697479207265676973747279000000000000005f82015250565b5f61067c601983610638565b915061068782610648565b602082019050919050565b5f6020820190508181035f8301526106a981610670565b9050919050565b7f496e76616c69642076616c69646174696f6e20726567697374727900000000005f82015250565b5f6106e4601b83610638565b91506106ef826106b0565b602082019050919050565b5f6020820190508181035f830152610711816106d8565b9050919050565b7f496e76616c6964204161766520746f6b656e00000000000000000000000000005f82015250565b5f61074c601283610638565b915061075782610718565b602082019050919050565b5f6020820190508181035f83015261077981610740565b9050919050565b7f496e76616c696420556e697377617020746f6b656e00000000000000000000005f82015250565b5f6107b4601583610638565b91506107bf82610780565b602082019050919050565b5f6020820190508181035f8301526107e1816107a8565b9050919050565b60805160a051611ca26108175f395f81816107b00152610a6301525f81816106d90152610ae60152611ca25ff3fe608060405234801561000f575f5ffd5b506004361061012a575f3560e01c80636d4e521b116100ab5780638da5cb5b1161006f5780638da5cb5b14610302578063cda9459414610320578063e22f3c8e14610355578063f2fde38b14610373578063fc8ba2ea1461038f5761012a565b80636d4e521b146102455780636f5f21e514610263578063715018a61461029357806377f6f0ce1461029d57806378eaf6d4146102cd5761012a565b806334e73a70116100f257806334e73a70146101b35780633652d209146101cf5780633adee794146101ed57806346feed2f1461020b57806365fad027146102275761012a565b806307a86eff1461012e57806316c4a1941461014f57806319f2f4f71461016d5780631b950e4214610177578063323bf80714610193575b5f5ffd5b6101366103bf565b60405161014694939291906111f2565b60405180910390f35b610157610427565b6040516101649190611235565b60405180910390f35b610175610436565b005b610191600480360381019061018c91906112a6565b610470565b005b61019b610622565b6040516101aa939291906112f6565b60405180910390f35b6101cd60048036038101906101c8919061135e565b61063b565b005b6101d7610a61565b6040516101e49190611409565b60405180910390f35b6101f5610a85565b6040516102029190611422565b60405180910390f35b6102256004803603810190610220919061143b565b610a91565b005b61022f610ae4565b60405161023c9190611499565b60405180910390f35b61024d610b08565b60405161025a9190611422565b60405180910390f35b61027d600480360381019061027891906114b2565b610b0e565b60405161028a919061162b565b60405180910390f35b61029b610bc6565b005b6102b760048036038101906102b291906114b2565b610bd9565b6040516102c491906116c4565b60405180910390f35b6102e760048036038101906102e291906116dd565b610d07565b6040516102f996959493929190611717565b60405180910390f35b61030a610d5a565b6040516103179190611776565b60405180910390f35b61033a6004803603810190610335919061178f565b610d81565b60405161034c96959493929190611717565b60405180910390f35b61035d610ddf565b60405161036a9190611422565b60405180910390f35b61038d600480360381019061038891906117cd565b610de5565b005b6103a960048036038101906103a491906116dd565b610e69565b6040516103b691906116c4565b60405180910390f35b6001805f015490806001015f9054906101000a900473ffffffffffffffffffffffffffffffffffffffff1690806002015f9054906101000a900473ffffffffffffffffffffffffffffffffffffffff16908060020160149054906101000a900460ff16905084565b5f60015f015460065411905090565b61043e610f35565b600160020160149054906101000a900460ff1615600160020160146101000a81548160ff021916908315150217905550565b610478610f35565b5f73ffffffffffffffffffffffffffffffffffffffff168273ffffffffffffffffffffffffffffffffffffffff16036104e6576040517f08c379a00000000000000000000000000000000000000000000000000000000081526004016104dd90611852565b60405180910390fd5b5f73ffffffffffffffffffffffffffffffffffffffff168173ffffffffffffffffffffffffffffffffffffffff1603610554576040517f08c379a000000000000000000000000000000000000000000000000000000000815260040161054b906118ba565b60405180910390fd5b8260015f018190555081600180015f6101000a81548173ffffffffffffffffffffffffffffffffffffffff021916908373ffffffffffffffffffffffffffffffffffffffff1602179055508060016002015f6101000a81548173ffffffffffffffffffffffffffffffffffffffff021916908373ffffffffffffffffffffffffffffffffffffffff1602179055507f609607f2d6da1415907d17034033f29862b972b0d7a3f9e4ffb55ded63f6564e838383604051610615939291906118d8565b60405180910390a1505050565b5f5f5f60065460075460015f0154925092509250909192565b610643610fbc565b600160020160149054906101000a900460ff16610695576040517f08c379a000000000000000000000000000000000000000000000000000000000815260040161068c90611957565b60405180910390fd5b5f82116106d7576040517f08c379a00000000000000000000000000000000000000000000000000000000081526004016106ce906119bf565b60405180910390fd5b7f000000000000000000000000000000000000000000000000000000000000000073ffffffffffffffffffffffffffffffffffffffff16638a92792b846040518263ffffffff1660e01b815260040161073091906119dd565b602060405180830381865afa15801561074b573d5f5f3e3d5ffd5b505050506040513d601f19601f8201168201806040525081019061076f9190611a20565b6107ae576040517f08c379a00000000000000000000000000000000000000000000000000000000081526004016107a590611a95565b60405180910390fd5b7f000000000000000000000000000000000000000000000000000000000000000073ffffffffffffffffffffffffffffffffffffffff166319d3137b826040518263ffffffff1660e01b815260040161080791906119dd565b602060405180830381865afa158015610822573d5f5f3e3d5ffd5b505050506040513d601f19601f820116820180604052508101906108469190611a20565b610885576040517f08c379a000000000000000000000000000000000000000000000000000000000815260040161087c90611afd565b60405180910390fd5b5f60065490505f60015f0154821190505f6040518060c00160405280878152602001428152602001848152602001831515815260200186815260200185815250905060045f8781526020019081526020015f2081908060018154018082558091505060019003905f5260205f2090600602015f909190919091505f820151815f015560208201518160010155604082015181600201556060820151816003015f6101000a81548160ff0219169083151502179055506080820151816004015560a082015181600501555050600581908060018154018082558091505060019003905f5260205f2090600602015f909190919091505f820151815f015560208201518160010155604082015181600201556060820151816003015f6101000a81548160ff0219169083151502179055506080820151816004015560a0820151816005015550508115610a135783867f85f680f08b93534b3de3d1b8aaebc3d56ed95e1237caf8f69f9bd1fc25b2754185600189604051610a0693929190611b1b565b60405180910390a3610a51565b83867f85f680f08b93534b3de3d1b8aaebc3d56ed95e1237caf8f69f9bd1fc25b27541855f89604051610a4893929190611b1b565b60405180910390a35b505050610a5c610fde565b505050565b7f000000000000000000000000000000000000000000000000000000000000000081565b5f600580549050905090565b610a99610f35565b81600681905550806007819055507f5aede3c004a58f4deea1bc79d14accc27f51a5e85384420dca4e940642216ccb8282604051610ad8929190611b50565b60405180910390a15050565b7f000000000000000000000000000000000000000000000000000000000000000081565b60075481565b606060045f8381526020019081526020015f20805480602002602001604051908101604052809291908181526020015f905b82821015610bbb578382905f5260205f2090600602016040518060c00160405290815f82015481526020016001820154815260200160028201548152602001600382015f9054906101000a900460ff161515151581526020016004820154815260200160058201548152505081526020019060010190610b40565b505050509050919050565b610bce610f35565b610bd75f610ff8565b565b610be161114f565b5f60045f8481526020019081526020015f20805480602002602001604051908101604052809291908181526020015f905b82821015610c8d578382905f5260205f2090600602016040518060c00160405290815f82015481526020016001820154815260200160028201548152602001600382015f9054906101000a900460ff161515151581526020016004820154815260200160058201548152505081526020019060010190610c12565b5050505090505f815103610cd6576040518060c001604052805f5f1b81526020015f81526020015f81526020015f151581526020015f81526020015f5f1b815250915050610d02565b8060018251610ce59190611ba4565b81518110610cf657610cf5611bd7565b5b60200260200101519150505b919050565b60058181548110610d16575f80fd5b905f5260205f2090600602015f91509050805f015490806001015490806002015490806003015f9054906101000a900460ff16908060040154908060050154905086565b5f5f5f9054906101000a900473ffffffffffffffffffffffffffffffffffffffff16905090565b6004602052815f5260405f208181548110610d9a575f80fd5b905f5260205f2090600602015f9150915050805f015490806001015490806002015490806003015f9054906101000a900460ff16908060040154908060050154905086565b60065481565b610ded610f35565b5f73ffffffffffffffffffffffffffffffffffffffff168173ffffffffffffffffffffffffffffffffffffffff1603610e5d575f6040517f1e4fbdf7000000000000000000000000000000000000000000000000000000008152600401610e549190611776565b60405180910390fd5b610e6681610ff8565b50565b610e7161114f565b6005805490508210610eb8576040517f08c379a0000000000000000000000000000000000000000000000000000000008152600401610eaf90611c4e565b60405180910390fd5b60058281548110610ecc57610ecb611bd7565b5b905f5260205f2090600602016040518060c00160405290815f82015481526020016001820154815260200160028201548152602001600382015f9054906101000a900460ff16151515158152602001600482015481526020016005820154815250509050919050565b610f3d6110b9565b73ffffffffffffffffffffffffffffffffffffffff16610f5b610d5a565b73ffffffffffffffffffffffffffffffffffffffff1614610fba57610f7e6110b9565b6040517f118cdaa7000000000000000000000000000000000000000000000000000000008152600401610fb19190611776565b60405180910390fd5b565b610fc46110c0565b6002610fd6610fd1611101565b61112a565b5f0181905550565b6001610ff0610feb611101565b61112a565b5f0181905550565b5f5f5f9054906101000a900473ffffffffffffffffffffffffffffffffffffffff169050815f5f6101000a81548173ffffffffffffffffffffffffffffffffffffffff021916908373ffffffffffffffffffffffffffffffffffffffff1602179055508173ffffffffffffffffffffffffffffffffffffffff168173ffffffffffffffffffffffffffffffffffffffff167f8be0079c531659141344cd1fd0a4f28419497f9722a3daafe3b4186f6b6457e060405160405180910390a35050565b5f33905090565b6110c8611133565b156110ff576040517f3ee5aeb500000000000000000000000000000000000000000000000000000000815260040160405180910390fd5b565b5f7f9b779b17422d0df92223018b32b4d1fa46e071723d6817e2486d003becc55f005f1b905090565b5f819050919050565b5f6002611146611141611101565b61112a565b5f015414905090565b6040518060c001604052805f81526020015f81526020015f81526020015f151581526020015f81526020015f81525090565b5f819050919050565b61119381611181565b82525050565b5f73ffffffffffffffffffffffffffffffffffffffff82169050919050565b5f6111c282611199565b9050919050565b6111d2816111b8565b82525050565b5f8115159050919050565b6111ec816111d8565b82525050565b5f6080820190506112055f83018761118a565b61121260208301866111c9565b61121f60408301856111c9565b61122c60608301846111e3565b95945050505050565b5f6020820190506112485f8301846111e3565b92915050565b5f5ffd5b61125b81611181565b8114611265575f5ffd5b50565b5f8135905061127681611252565b92915050565b611285816111b8565b811461128f575f5ffd5b50565b5f813590506112a08161127c565b92915050565b5f5f5f606084860312156112bd576112bc61124e565b5b5f6112ca86828701611268565b93505060206112db86828701611292565b92505060406112ec86828701611292565b9150509250925092565b5f6060820190506113095f83018661118a565b611316602083018561118a565b611323604083018461118a565b949350505050565b5f819050919050565b61133d8161132b565b8114611347575f5ffd5b50565b5f8135905061135881611334565b92915050565b5f5f5f606084860312156113755761137461124e565b5b5f6113828682870161134a565b935050602061139386828701611268565b92505060406113a48682870161134a565b9150509250925092565b5f819050919050565b5f6113d16113cc6113c784611199565b6113ae565b611199565b9050919050565b5f6113e2826113b7565b9050919050565b5f6113f3826113d8565b9050919050565b611403816113e9565b82525050565b5f60208201905061141c5f8301846113fa565b92915050565b5f6020820190506114355f83018461118a565b92915050565b5f5f604083850312156114515761145061124e565b5b5f61145e85828601611268565b925050602061146f85828601611268565b9150509250929050565b5f611483826113d8565b9050919050565b61149381611479565b82525050565b5f6020820190506114ac5f83018461148a565b92915050565b5f602082840312156114c7576114c661124e565b5b5f6114d48482850161134a565b91505092915050565b5f81519050919050565b5f82825260208201905092915050565b5f819050602082019050919050565b61150f8161132b565b82525050565b61151e81611181565b82525050565b61152d816111d8565b82525050565b60c082015f8201516115475f850182611506565b50602082015161155a6020850182611515565b50604082015161156d6040850182611515565b5060608201516115806060850182611524565b5060808201516115936080850182611515565b5060a08201516115a660a0850182611506565b50505050565b5f6115b78383611533565b60c08301905092915050565b5f602082019050919050565b5f6115d9826114dd565b6115e381856114e7565b93506115ee836114f7565b805f5b8381101561161e57815161160588826115ac565b9750611610836115c3565b9250506001810190506115f1565b5085935050505092915050565b5f6020820190508181035f83015261164381846115cf565b905092915050565b60c082015f82015161165f5f850182611506565b5060208201516116726020850182611515565b5060408201516116856040850182611515565b5060608201516116986060850182611524565b5060808201516116ab6080850182611515565b5060a08201516116be60a0850182611506565b50505050565b5f60c0820190506116d75f83018461164b565b92915050565b5f602082840312156116f2576116f161124e565b5b5f6116ff84828501611268565b91505092915050565b6117118161132b565b82525050565b5f60c08201905061172a5f830189611708565b611737602083018861118a565b611744604083018761118a565b61175160608301866111e3565b61175e608083018561118a565b61176b60a0830184611708565b979650505050505050565b5f6020820190506117895f8301846111c9565b92915050565b5f5f604083850312156117a5576117a461124e565b5b5f6117b28582860161134a565b92505060206117c385828601611268565b9150509250929050565b5f602082840312156117e2576117e161124e565b5b5f6117ef84828501611292565b91505092915050565b5f82825260208201905092915050565b7f496e76616c6964204161766520746f6b656e00000000000000000000000000005f82015250565b5f61183c6012836117f8565b915061184782611808565b602082019050919050565b5f6020820190508181035f83015261186981611830565b9050919050565b7f496e76616c696420556e697377617020746f6b656e00000000000000000000005f82015250565b5f6118a46015836117f8565b91506118af82611870565b602082019050919050565b5f6020820190508181035f8301526118d181611898565b9050919050565b5f6060820190506118eb5f83018661118a565b6118f860208301856111c9565b61190560408301846111c9565b949350505050565b7f5374726174656779206973206e6f7420616374697665000000000000000000005f82015250565b5f6119416016836117f8565b915061194c8261190d565b602082019050919050565b5f6020820190508181035f83015261196e81611935565b9050919050565b7f416d6f756e74206d7573742062652067726561746572207468616e20300000005f82015250565b5f6119a9601d836117f8565b91506119b482611975565b602082019050919050565b5f6020820190508181035f8301526119d68161199d565b9050919050565b5f6020820190506119f05f830184611708565b92915050565b6119ff816111d8565b8114611a09575f5ffd5b50565b5f81519050611a1a816119f6565b92915050565b5f60208284031215611a3557611a3461124e565b5b5f611a4284828501611a0c565b91505092915050565b7f4167656e74206973206e6f7420616374697665000000000000000000000000005f82015250565b5f611a7f6013836117f8565b9150611a8a82611a4b565b602082019050919050565b5f6020820190508181035f830152611aac81611a73565b9050919050565b7f50726f6f66206973206e6f742076616c696400000000000000000000000000005f82015250565b5f611ae76012836117f8565b9150611af282611ab3565b602082019050919050565b5f6020820190508181035f830152611b1481611adb565b9050919050565b5f606082019050611b2e5f83018661118a565b611b3b60208301856111e3565b611b48604083018461118a565b949350505050565b5f604082019050611b635f83018561118a565b611b70602083018461118a565b9392505050565b7f4e487b71000000000000000000000000000000000000000000000000000000005f52601160045260245ffd5b5f611bae82611181565b9150611bb983611181565b9250828203905081811115611bd157611bd0611b77565b5b92915050565b7f4e487b71000000000000000000000000000000000000000000000000000000005f52603260045260245ffd5b7f496e646578206f7574206f6620626f756e6473000000000000000000000000005f82015250565b5f611c386013836117f8565b9150611c4382611c04565b602082019050919050565b5f6020820190508181035f830152611c6581611c2c565b905091905056fea26469706673582212208551d77568e027b8e6442b30fd5187a678e3e94642fb3d9d092d72d51c9b486064736f6c634300081e0033","linkReferences":{}},"methodIdentifiers":{"IDENTITY_REGISTRY()":"65fad027","VALIDATION_REGISTRY()":"3652d209","agentExecutions(bytes32,uint256)":"cda94594","allExecutions(uint256)":"78eaf6d4","executeStrategy(bytes32,uint256,bytes32)":"34e73a70","getAgentExecutions(bytes32)":"6f5f21e5","getCurrentApyInfo()":"323bf807","getCurrentStrategyDecision()":"16c4a194","getExecutionByIndex(uint256)":"fc8ba2ea","getLatestExecution(bytes32)":"77f6f0ce","getTotalExecutions()":"3adee794","mockAaveApy()":"e22f3c8e","mockUniswapApy()":"6d4e521b","owner()":"8da5cb5b","renounceOwnership()":"715018a6","strategyConfig()":"07a86eff","toggleStrategyActive()":"19f2f4f7","transferOwnership(address)":"f2fde38b","updateMockApy(uint256,uint256)":"46feed2f","updateStrategyConfig(uint256,address,address)":"1b950e42"},"id":32}