{"abi":[{"type":"constructor","inputs":[],"stateMutability":"nonpayable"},{"type":"function","name":"MOCK_TEE_PUBLIC_KEY","inputs":[],"outputs":[{"name":"","type":"address","internalType":"address"}],"stateMutability":"view"},{"type":"function","name":"allProofIds","inputs":[{"name":"","type":"uint256","internalType":"uint256"}],"outputs":[{"name":"","type":"bytes32","internalType":"bytes32"}],"stateMutability":"view"},{"type":"function","name":"generateProof","inputs":[{"name":"agentId","type":"bytes32","internalType":"bytes32"},{"name":"strategyResult","type":"string","internalType":"string"},{"name":"transactionData","type":"bytes","internalType":"bytes"}],"outputs":[{"name":"proofId","type":"bytes32","internalType":"bytes32"},{"name":"proofHash","type":"bytes32","internalType":"bytes32"},{"name":"signature","type":"bytes","internalType":"bytes"}],"stateMutability":"nonpayable"},{"type":"function","name":"generateProofHash","inputs":[{"name":"agentId","type":"bytes32","internalType":"bytes32"},{"name":"strategyResult","type":"string","internalType":"string"},{"name":"timestamp","type":"uint256","internalType":"uint256"}],"outputs":[{"name":"","type":"bytes32","internalType":"bytes32"}],"stateMutability":"pure"},{"type":"function","name":"getProofIdByIndex","inputs":[{"name":"index","type":"uint256","internalType":"uint256"}],"outputs":[{"name":"","type":"bytes32","internalType":"bytes32"}],"stateMutability":"view"},{"type":"function","name":"getTeeProof","inputs":[{"name":"proofId","type":"bytes32","internalType":"bytes32"}],"outputs":[{"name":"","type":"tuple","internalType":"struct TEESimulation.TeeProof","components":[{"name":"proofHash","type":"bytes32","internalType":"bytes32"},{"name":"agentId","type":"bytes32","internalType":"bytes32"},{"name":"strategyResult","type":"string","internalType":"string"},{"name":"timestamp","type":"uint256","internalType":"uint256"},{"name":"signature","type":"bytes","internalType":"bytes"},{"name":"isValid","type":"bool","internalType":"bool"}]}],"stateMutability":"view"},{"type":"function","name":"getTeePublicKey","inputs":[],"outputs":[{"name":"","type":"address","internalType":"address"}],"stateMutability":"pure"},{"type":"function","name":"getTotalProofs","inputs":[],"outputs":[{"name":"","type":"uint256","internalType":"uint256"}],"stateMutability":"view"},{"type":"function","name":"invalidateProof","inputs":[{"name":"proofId","type":"bytes32","internalType":"bytes32"}],"outputs":[],"stateMutability":"nonpayable"},{"type":"function","name":"owner","inputs":[],"outputs":[{"name":"","type":"address","internalType":"address"}],"stateMutability":"view"},{"type":"function","name":"renounceOwnership","inputs":[],"outputs":[],"stateMutability":"nonpayable"},{"type":"function","name":"teeProofs","inputs":[{"name":"","type":"bytes32","internalType":"bytes32"}],"outputs":[{"name":"proofHash","type":"bytes32","internalType":"bytes32"},{"name":"agentId","type":"bytes32","internalType":"bytes32"},{"name":"strategyResult","type":"string","internalType":"string"},{"name":"timestamp","type":"uint256","internalType":"uint256"},{"name":"signature","type":"bytes","internalType":"bytes"},{"name":"isValid","type":"bool","internalType":"bool"}],"stateMutability":"view"},{"type":"function","name":"transferOwnership","inputs":[{"name":"newOwner","type":"address","internalType":"address"}],"outputs":[],"stateMutability":"nonpayable"},{"type":"function","name":"validateProof","inputs":[{"name":"proofId","type":"bytes32","internalType":"bytes32"}],"outputs":[{"name":"","type":"bool","internalType":"bool"}],"stateMutability":"view"},{"type":"function","name":"verifyMockSignature","inputs":[{"name":"","type":"bytes32","internalType":"bytes32"},{"name":"signature","type":"bytes","internalType":"bytes"}],"outputs":[{"name":"","type":"bool","internalType":"bool"}],"stateMutability":"pure"},{"type":"event","name":"OwnershipTransferred","inputs":[{"name":"previousOwner","type":"address","indexed":true,"internalType":"address"},{"name":"newOwner","type":"address","indexed":true,"internalType":"address"}],"anonymous":false},{"type":"event","name":"ProofGenerated","inputs":[{"name":"proofId","type":"bytes32","indexed":true,"internalType":"bytes32"},{"name":"agentId","type":"bytes32","indexed":true,"internalType":"bytes32"},{"name":"proofHash","type":"bytes32","indexed":false,"internalType":"bytes32"},{"name":"strategyResult","type":"string","indexed":false,"internalType":"string"}],"anonymous":false},{"type":"event","name":"ProofValidated","inputs":[{"name":"proofId","type":"bytes32","indexed":true,"internalType":"bytes32"},{"name":"isValid","type":"bool","indexed":false,"internalType":"bool"}],"anonymous":false},{"type":"error","name":"OwnableInvalidOwner","inputs":[{"name":"owner","type":"address","internalType":"address"}]},{"type":"error","name":"OwnableUnauthorizedAccount","inputs":[{"name":"account","type":"address","internalType":"address"}]},{"type":"error","name":"ReentrancyGuardReentrantCall","inputs":[]}],"bytecode":{"object":"0x608060405234801561000f575f5ffd5b50335f73ffffffffffffffffffffffffffffffffffffffff168173ffffffffffffffffffffffffffffffffffffffff1603610081575f6040517f1e4fbdf700000000000000000000000000000000000000000000000000000000815260040161007891906101ec565b60405180910390fd5b610090816100ba60201b60201c565b5060016100af6100a461017b60201b60201c565b6101a460201b60201c565b5f0181905550610205565b5f5f5f9054906101000a900473ffffffffffffffffffffffffffffffffffffffff169050815f5f6101000a81548173ffffffffffffffffffffffffffffffffffffffff021916908373ffffffffffffffffffffffffffffffffffffffff1602179055508173ffffffffffffffffffffffffffffffffffffffff168173ffffffffffffffffffffffffffffffffffffffff167f8be0079c531659141344cd1fd0a4f28419497f9722a3daafe3b4186f6b6457e060405160405180910390a35050565b5f7f9b779b17422d0df92223018b32b4d1fa46e071723d6817e2486d003becc55f005f1b905090565b5f819050919050565b5f73ffffffffffffffffffffffffffffffffffffffff82169050919050565b5f6101d6826101ad565b9050919050565b6101e6816101cc565b82525050565b5f6020820190506101ff5f8301846101dd565b92915050565b612093806102125f395ff3fe608060405234801561000f575f5ffd5b50600436106100f3575f3560e01c806398d419a011610095578063be38677c11610064578063be38677c14610299578063c92e6665146102b5578063f2fde38b146102ea578063f568348314610306576100f3565b806398d419a0146101eb5780639b1bc0c91461021b578063a490e81614610239578063ae6b0d3714610269576100f3565b806377b0a917116100d157806377b0a9171461013d5780637c1637691461016d57806380ffa69d1461019d5780638da5cb5b146101cd576100f3565b806336bfac07146100f7578063715018a614610115578063751028ae1461011f575b5f5ffd5b6100ff610338565b60405161010c9190610fdd565b60405180910390f35b61011d610353565b005b610127610366565b6040516101349190610fdd565b60405180910390f35b61015760048036038101906101529190611031565b61037e565b6040516101649190611074565b60405180910390f35b61018760048036038101906101829190611118565b61039e565b604051610194919061118f565b60405180910390f35b6101b760048036038101906101b291906111a8565b6103f5565b6040516101c4919061118f565b60405180910390f35b6101d5610476565b6040516101e29190610fdd565b60405180910390f35b610205600480360381019061020091906111a8565b61049d565b604051610212919061134f565b60405180910390f35b610223610677565b604051610230919061137e565b60405180910390f35b610253600480360381019061024e91906113ec565b610683565b6040516102609190611074565b60405180910390f35b610283600480360381019061027e9190611031565b6106c4565b6040516102909190611074565b60405180910390f35b6102b360048036038101906102ae91906111a8565b610730565b005b6102cf60048036038101906102ca91906111a8565b610856565b6040516102e1969594939291906114ed565b60405180910390f35b61030460048036038101906102ff9190611584565b6109a6565b005b610320600480360381019061031b91906115af565b610a2a565b60405161032f93929190611640565b60405180910390f35b5f73742d35cc6634c0532925a3b8d4c9db96c4b4d8b6905090565b61035b610d27565b6103645f610dae565b565b73742d35cc6634c0532925a3b8d4c9db96c4b4d8b681565b6002818154811061038d575f80fd5b905f5260205f20015f915090505481565b5f5f838390501180156103ec57506040516020016103bb906116d0565b6040516020818303038152906040528051906020012083836040516103e1929190611720565b604051809103902014155b90509392505050565b5f5f5f1b60015f8481526020019081526020015f20600101540361044e576040517f08c379a000000000000000000000000000000000000000000000000000000000815260040161044590611782565b60405180910390fd5b60015f8381526020019081526020015f206005015f9054906101000a900460ff169050919050565b5f5f5f9054906101000a900473ffffffffffffffffffffffffffffffffffffffff16905090565b6104a5610f6a565b5f5f1b60015f8481526020019081526020015f2060010154036104fd576040517f08c379a00000000000000000000000000000000000000000000000000000000081526004016104f490611782565b60405180910390fd5b60015f8381526020019081526020015f206040518060c00160405290815f82015481526020016001820154815260200160028201805461053c906117cd565b80601f0160208091040260200160405190810160405280929190818152602001828054610568906117cd565b80156105b35780601f1061058a576101008083540402835291602001916105b3565b820191905f5260205f20905b81548152906001019060200180831161059657829003601f168201915b50505050508152602001600382015481526020016004820180546105d6906117cd565b80601f0160208091040260200160405190810160405280929190818152602001828054610602906117cd565b801561064d5780601f106106245761010080835404028352916020019161064d565b820191905f5260205f20905b81548152906001019060200180831161063057829003601f168201915b50505050508152602001600582015f9054906101000a900460ff1615151515815250509050919050565b5f600280549050905090565b5f5f8585858560405160200161069c9493929190611829565b60405160208183030381529060405290505f8151602083012090508092505050949350505050565b5f600280549050821061070c576040517f08c379a0000000000000000000000000000000000000000000000000000000008152600401610703906118b1565b60405180910390fd5b600282815481106107205761071f6118cf565b5b905f5260205f2001549050919050565b610738610d27565b5f5f1b60015f8381526020019081526020015f206001015403610790576040517f08c379a000000000000000000000000000000000000000000000000000000000815260040161078790611782565b60405180910390fd5b60015f8281526020019081526020015f206005015f9054906101000a900460ff166107f0576040517f08c379a00000000000000000000000000000000000000000000000000000000081526004016107e790611946565b60405180910390fd5b5f60015f8381526020019081526020015f206005015f6101000a81548160ff021916908315150217905550807f7c95b3c812213fc28c1ac7cb56fa754db9a106c6216ceac8641477c83d40cdc05f60405161084b919061118f565b60405180910390a250565b6001602052805f5260405f205f91509050805f015490806001015490806002018054610881906117cd565b80601f01602080910402602001604051908101604052809291908181526020018280546108ad906117cd565b80156108f85780601f106108cf576101008083540402835291602001916108f8565b820191905f5260205f20905b8154815290600101906020018083116108db57829003601f168201915b505050505090806003015490806004018054610913906117cd565b80601f016020809104026020016040519081016040528092919081815260200182805461093f906117cd565b801561098a5780601f106109615761010080835404028352916020019161098a565b820191905f5260205f20905b81548152906001019060200180831161096d57829003601f168201915b505050505090806005015f9054906101000a900460ff16905086565b6109ae610d27565b5f73ffffffffffffffffffffffffffffffffffffffff168173ffffffffffffffffffffffffffffffffffffffff1603610a1e575f6040517f1e4fbdf7000000000000000000000000000000000000000000000000000000008152600401610a159190610fdd565b60405180910390fd5b610a2781610dae565b50565b5f5f6060610a36610e6f565b5f5f1b8803610a7a576040517f08c379a0000000000000000000000000000000000000000000000000000000008152600401610a71906119ae565b60405180910390fd5b5f8787905011610abf576040517f08c379a0000000000000000000000000000000000000000000000000000000008152600401610ab690611a16565b60405180910390fd5b878787424333604051602001610ada96959493929190611add565b6040516020818303038152906040528051906020012092505f5f1b60015f8581526020019081526020015f206001015414610b4a576040517f08c379a0000000000000000000000000000000000000000000000000000000008152600401610b4190611b83565b60405180910390fd5b87878787874243604051602001610b679796959493929190611ba1565b604051602081830303815290604052805190602001209150610b8882610e91565b90506040518060c0016040528083815260200189815260200188888080601f0160208091040260200160405190810160405280939291908181526020018383808284375f81840152601f19601f8201169050808301925050505050505081526020014281526020018281526020016001151581525060015f8581526020019081526020015f205f820151815f0155602082015181600101556040820151816002019081610c359190611dc8565b50606082015181600301556080820151816004019081610c559190611eef565b5060a0820151816005015f6101000a81548160ff021916908315150217905550905050600283908060018154018082558091505060019003905f5260205f20015f909190919091505587837fd33d7d03966c495ee150beec74f4a7487c278d5d0024e5a6da1cb46af6f920c5848a8a604051610cd393929190611fbe565b60405180910390a3827f7c95b3c812213fc28c1ac7cb56fa754db9a106c6216ceac8641477c83d40cdc06001604051610d0c919061118f565b60405180910390a2610d1c610eba565b955095509592505050565b610d2f610ed4565b73ffffffffffffffffffffffffffffffffffffffff16610d4d610476565b73ffffffffffffffffffffffffffffffffffffffff1614610dac57610d70610ed4565b6040517f118cdaa7000000000000000000000000000000000000000000000000000000008152600401610da39190610fdd565b60405180910390fd5b565b5f5f5f9054906101000a900473ffffffffffffffffffffffffffffffffffffffff169050815f5f6101000a81548173ffffffffffffffffffffffffffffffffffffffff021916908373ffffffffffffffffffffffffffffffffffffffff1602179055508173ffffffffffffffffffffffffffffffffffffffff168173ffffffffffffffffffffffffffffffffffffffff167f8be0079c531659141344cd1fd0a4f28419497f9722a3daafe3b4186f6b6457e060405160405180910390a35050565b610e77610edb565b6002610e89610e84610f1c565b610f45565b5f0181905550565b606081604051602001610ea49190612038565b6040516020818303038152906040529050919050565b6001610ecc610ec7610f1c565b610f45565b5f0181905550565b5f33905090565b610ee3610f4e565b15610f1a576040517f3ee5aeb500000000000000000000000000000000000000000000000000000000815260040160405180910390fd5b565b5f7f9b779b17422d0df92223018b32b4d1fa46e071723d6817e2486d003becc55f005f1b905090565b5f819050919050565b5f6002610f61610f5c610f1c565b610f45565b5f015414905090565b6040518060c001604052805f81526020015f8152602001606081526020015f8152602001606081526020015f151581525090565b5f73ffffffffffffffffffffffffffffffffffffffff82169050919050565b5f610fc782610f9e565b9050919050565b610fd781610fbd565b82525050565b5f602082019050610ff05f830184610fce565b92915050565b5f5ffd5b5f5ffd5b5f819050919050565b61101081610ffe565b811461101a575f5ffd5b50565b5f8135905061102b81611007565b92915050565b5f6020828403121561104657611045610ff6565b5b5f6110538482850161101d565b91505092915050565b5f819050919050565b61106e8161105c565b82525050565b5f6020820190506110875f830184611065565b92915050565b6110968161105c565b81146110a0575f5ffd5b50565b5f813590506110b18161108d565b92915050565b5f5ffd5b5f5ffd5b5f5ffd5b5f5f83601f8401126110d8576110d76110b7565b5b8235905067ffffffffffffffff8111156110f5576110f46110bb565b5b602083019150836001820283011115611111576111106110bf565b5b9250929050565b5f5f5f6040848603121561112f5761112e610ff6565b5b5f61113c868287016110a3565b935050602084013567ffffffffffffffff81111561115d5761115c610ffa565b5b611169868287016110c3565b92509250509250925092565b5f8115159050919050565b61118981611175565b82525050565b5f6020820190506111a25f830184611180565b92915050565b5f602082840312156111bd576111bc610ff6565b5b5f6111ca848285016110a3565b91505092915050565b6111dc8161105c565b82525050565b5f81519050919050565b5f82825260208201905092915050565b8281835e5f83830152505050565b5f601f19601f8301169050919050565b5f611224826111e2565b61122e81856111ec565b935061123e8185602086016111fc565b6112478161120a565b840191505092915050565b61125b81610ffe565b82525050565b5f81519050919050565b5f82825260208201905092915050565b5f61128582611261565b61128f818561126b565b935061129f8185602086016111fc565b6112a88161120a565b840191505092915050565b6112bc81611175565b82525050565b5f60c083015f8301516112d75f8601826111d3565b5060208301516112ea60208601826111d3565b5060408301518482036040860152611302828261121a565b91505060608301516113176060860182611252565b506080830151848203608086015261132f828261127b565b91505060a083015161134460a08601826112b3565b508091505092915050565b5f6020820190508181035f83015261136781846112c2565b905092915050565b61137881610ffe565b82525050565b5f6020820190506113915f83018461136f565b92915050565b5f5f83601f8401126113ac576113ab6110b7565b5b8235905067ffffffffffffffff8111156113c9576113c86110bb565b5b6020830191508360018202830111156113e5576113e46110bf565b5b9250929050565b5f5f5f5f6060858703121561140457611403610ff6565b5b5f611411878288016110a3565b945050602085013567ffffffffffffffff81111561143257611431610ffa565b5b61143e87828801611397565b935093505060406114518782880161101d565b91505092959194509250565b5f82825260208201905092915050565b5f611477826111e2565b611481818561145d565b93506114918185602086016111fc565b61149a8161120a565b840191505092915050565b5f82825260208201905092915050565b5f6114bf82611261565b6114c981856114a5565b93506114d98185602086016111fc565b6114e28161120a565b840191505092915050565b5f60c0820190506115005f830189611065565b61150d6020830188611065565b818103604083015261151f818761146d565b905061152e606083018661136f565b818103608083015261154081856114b5565b905061154f60a0830184611180565b979650505050505050565b61156381610fbd565b811461156d575f5ffd5b50565b5f8135905061157e8161155a565b92915050565b5f6020828403121561159957611598610ff6565b5b5f6115a684828501611570565b91505092915050565b5f5f5f5f5f606086880312156115c8576115c7610ff6565b5b5f6115d5888289016110a3565b955050602086013567ffffffffffffffff8111156115f6576115f5610ffa565b5b61160288828901611397565b9450945050604086013567ffffffffffffffff81111561162557611624610ffa565b5b611631888289016110c3565b92509250509295509295909350565b5f6060820190506116535f830186611065565b6116606020830185611065565b818103604083015261167281846114b5565b9050949350505050565b5f81905092915050565b7f494e56414c4944000000000000000000000000000000000000000000000000005f82015250565b5f6116ba60078361167c565b91506116c582611686565b600782019050919050565b5f6116da826116ae565b9150819050919050565b5f81905092915050565b828183375f83830152505050565b5f61170783856116e4565b93506117148385846116ee565b82840190509392505050565b5f61172c8284866116fc565b91508190509392505050565b7f50726f6f6620646f6573206e6f742065786973740000000000000000000000005f82015250565b5f61176c60148361145d565b915061177782611738565b602082019050919050565b5f6020820190508181035f83015261179981611760565b9050919050565b7f4e487b71000000000000000000000000000000000000000000000000000000005f52602260045260245ffd5b5f60028204905060018216806117e457607f821691505b6020821081036117f7576117f66117a0565b5b50919050565b5f611808838561145d565b93506118158385846116ee565b61181e8361120a565b840190509392505050565b5f60608201905061183c5f830187611065565b818103602083015261184f8185876117fd565b905061185e604083018461136f565b95945050505050565b7f496e646578206f7574206f6620626f756e6473000000000000000000000000005f82015250565b5f61189b60138361145d565b91506118a682611867565b602082019050919050565b5f6020820190508181035f8301526118c88161188f565b9050919050565b7f4e487b71000000000000000000000000000000000000000000000000000000005f52603260045260245ffd5b7f50726f6f6620616c726561647920696e76616c696400000000000000000000005f82015250565b5f61193060158361145d565b915061193b826118fc565b602082019050919050565b5f6020820190508181035f83015261195d81611924565b9050919050565b7f496e76616c6964206167656e74204944000000000000000000000000000000005f82015250565b5f61199860108361145d565b91506119a382611964565b602082019050919050565b5f6020820190508181035f8301526119c58161198c565b9050919050565b7f537472617465677920726573756c742063616e6e6f7420626520656d707479005f82015250565b5f611a00601f8361145d565b9150611a0b826119cc565b602082019050919050565b5f6020820190508181035f830152611a2d816119f4565b9050919050565b5f819050919050565b611a4e611a498261105c565b611a34565b82525050565b5f611a5f838561167c565b9350611a6c8385846116ee565b82840190509392505050565b5f819050919050565b611a92611a8d82610ffe565b611a78565b82525050565b5f8160601b9050919050565b5f611aae82611a98565b9050919050565b5f611abf82611aa4565b9050919050565b611ad7611ad282610fbd565b611ab5565b82525050565b5f611ae88289611a3d565b602082019150611af9828789611a54565b9150611b058286611a81565b602082019150611b158285611a81565b602082019150611b258284611ac6565b601482019150819050979650505050505050565b7f50726f6f6620616c7265616479206578697374730000000000000000000000005f82015250565b5f611b6d60148361145d565b9150611b7882611b39565b602082019050919050565b5f6020820190508181035f830152611b9a81611b61565b9050919050565b5f611bac828a611a3d565b602082019150611bbd82888a611a54565b9150611bca8286886116fc565b9150611bd68285611a81565b602082019150611be68284611a81565b60208201915081905098975050505050505050565b7f4e487b71000000000000000000000000000000000000000000000000000000005f52604160045260245ffd5b5f819050815f5260205f209050919050565b5f6020601f8301049050919050565b5f82821b905092915050565b5f60088302611c847fffffffffffffffffffffffffffffffffffffffffffffffffffffffffffffffff82611c49565b611c8e8683611c49565b95508019841693508086168417925050509392505050565b5f819050919050565b5f611cc9611cc4611cbf84610ffe565b611ca6565b610ffe565b9050919050565b5f819050919050565b611ce283611caf565b611cf6611cee82611cd0565b848454611c55565b825550505050565b5f5f905090565b611d0d611cfe565b611d18818484611cd9565b505050565b5b81811015611d3b57611d305f82611d05565b600181019050611d1e565b5050565b601f821115611d8057611d5181611c28565b611d5a84611c3a565b81016020851015611d69578190505b611d7d611d7585611c3a565b830182611d1d565b50505b505050565b5f82821c905092915050565b5f611da05f1984600802611d85565b1980831691505092915050565b5f611db88383611d91565b9150826002028217905092915050565b611dd1826111e2565b67ffffffffffffffff811115611dea57611de9611bfb565b5b611df482546117cd565b611dff828285611d3f565b5f60209050601f831160018114611e30575f8415611e1e578287015190505b611e288582611dad565b865550611e8f565b601f198416611e3e86611c28565b5f5b82811015611e6557848901518255600182019150602085019450602081019050611e40565b86831015611e825784890151611e7e601f891682611d91565b8355505b6001600288020188555050505b505050505050565b5f819050815f5260205f209050919050565b601f821115611eea57611ebb81611e97565b611ec484611c3a565b81016020851015611ed3578190505b611ee7611edf85611c3a565b830182611d1d565b50505b505050565b611ef882611261565b67ffffffffffffffff811115611f1157611f10611bfb565b5b611f1b82546117cd565b611f26828285611ea9565b5f60209050601f831160018114611f57575f8415611f45578287015190505b611f4f8582611dad565b865550611fb6565b601f198416611f6586611e97565b5f5b82811015611f8c57848901518255600182019150602085019450602081019050611f67565b86831015611fa95784890151611fa5601f891682611d91565b8355505b6001600288020188555050505b505050505050565b5f604082019050611fd15f830186611065565b8181036020830152611fe48184866117fd565b9050949350505050565b7f4d4f434b5f5445455f5349474e41545552453a000000000000000000000000005f82015250565b5f61202260138361167c565b915061202d82611fee565b601382019050919050565b5f61204282612016565b915061204e8284611a3d565b6020820191508190509291505056fea2646970667358221220eb2ca3ee4406b6dc3ba00740fef73d71ac7c1e218bfd675436ff86a9ed92d93964736f6c634300081e0033","linkReferences":{}},"methodIdentifiers":{"MOCK_TEE_PUBLIC_KEY()":"751028ae","allProofIds(uint256)":"77b0a917","generateProof(bytes32,string,bytes)":"f5683483","generateProofHash(bytes32,string,uint256)":"a490e816","getProofIdByIndex(uint256)":"ae6b0d37","getTeeProof(bytes32)":"98d419a0","getTeePublicKey()":"36bfac07","getTotalProofs()":"9b1bc0c9","invalidateProof(bytes32)":"be38677c","owner()":"8da5cb5b","renounceOwnership()":"715018a6","teeProofs(bytes32)":"c92e6665","transferOwnership(address)":"f2fde38b","validateProof(bytes32)":"80ffa69d","verifyMockSignature(bytes32,bytes)":"7c163769"},"id":33}