{"abi":[{"type":"constructor","inputs":[],"stateMutability":"nonpayable"},{"type":"function","name":"MOCK_TEE_PUBLIC_KEY","inputs":[],"outputs":[{"name":"","type":"address","internalType":"address"}],"stateMutability":"view"},{"type":"function","name":"agentProofs","inputs":[{"name":"","type":"bytes32","internalType":"bytes32"},{"name":"","type":"uint256","internalType":"uint256"}],"outputs":[{"name":"","type":"bytes32","internalType":"bytes32"}],"stateMutability":"view"},{"type":"function","name":"allProofIds","inputs":[{"name":"","type":"uint256","internalType":"uint256"}],"outputs":[{"name":"","type":"bytes32","internalType":"bytes32"}],"stateMutability":"view"},{"type":"function","name":"generateMockProofHash","inputs":[{"name":"agentId","type":"bytes32","internalType":"bytes32"},{"name":"strategyResult","type":"string","internalType":"string"},{"name":"timestamp","type":"uint256","internalType":"uint256"}],"outputs":[{"name":"","type":"bytes32","internalType":"bytes32"}],"stateMutability":"pure"},{"type":"function","name":"getLatestValidProof","inputs":[{"name":"agentId","type":"bytes32","internalType":"bytes32"}],"outputs":[{"name":"","type":"bytes32","internalType":"bytes32"}],"stateMutability":"view"},{"type":"function","name":"getProofIdByIndex","inputs":[{"name":"index","type":"uint256","internalType":"uint256"}],"outputs":[{"name":"","type":"bytes32","internalType":"bytes32"}],"stateMutability":"view"},{"type":"function","name":"getProofsByAgent","inputs":[{"name":"agentId","type":"bytes32","internalType":"bytes32"}],"outputs":[{"name":"","type":"bytes32[]","internalType":"bytes32[]"}],"stateMutability":"view"},{"type":"function","name":"getTotalProofs","inputs":[],"outputs":[{"name":"","type":"uint256","internalType":"uint256"}],"stateMutability":"view"},{"type":"function","name":"getValidationProof","inputs":[{"name":"proofId","type":"bytes32","internalType":"bytes32"}],"outputs":[{"name":"","type":"tuple","internalType":"struct ValidationRegistry.ValidationProof","components":[{"name":"proofHash","type":"bytes32","internalType":"bytes32"},{"name":"walrusReference","type":"string","internalType":"string"},{"name":"validator","type":"address","internalType":"address"},{"name":"submittedAt","type":"uint256","internalType":"uint256"},{"name":"isValid","type":"bool","internalType":"bool"},{"name":"agentId","type":"bytes32","internalType":"bytes32"}]}],"stateMutability":"view"},{"type":"function","name":"invalidateProof","inputs":[{"name":"proofId","type":"bytes32","internalType":"bytes32"},{"name":"reason","type":"string","internalType":"string"}],"outputs":[],"stateMutability":"nonpayable"},{"type":"function","name":"isProofValid","inputs":[{"name":"proofId","type":"bytes32","internalType":"bytes32"}],"outputs":[{"name":"","type":"bool","internalType":"bool"}],"stateMutability":"view"},{"type":"function","name":"owner","inputs":[],"outputs":[{"name":"","type":"address","internalType":"address"}],"stateMutability":"view"},{"type":"function","name":"renounceOwnership","inputs":[],"outputs":[],"stateMutability":"nonpayable"},{"type":"function","name":"submitProof","inputs":[{"name":"proofId","type":"bytes32","internalType":"bytes32"},{"name":"agentId","type":"bytes32","internalType":"bytes32"},{"name":"proofHash","type":"bytes32","internalType":"bytes32"},{"name":"walrusReference","type":"string","internalType":"string"},{"name":"signature","type":"bytes","internalType":"bytes"}],"outputs":[],"stateMutability":"nonpayable"},{"type":"function","name":"transferOwnership","inputs":[{"name":"newOwner","type":"address","internalType":"address"}],"outputs":[],"stateMutability":"nonpayable"},{"type":"function","name":"validationProofs","inputs":[{"name":"","type":"bytes32","internalType":"bytes32"}],"outputs":[{"name":"proofHash","type":"bytes32","internalType":"bytes32"},{"name":"walrusReference","type":"string","internalType":"string"},{"name":"validator","type":"address","internalType":"address"},{"name":"submittedAt","type":"uint256","internalType":"uint256"},{"name":"isValid","type":"bool","internalType":"bool"},{"name":"agentId","type":"bytes32","internalType":"bytes32"}],"stateMutability":"view"},{"type":"event","name":"OwnershipTransferred","inputs":[{"name":"previousOwner","type":"address","indexed":true,"internalType":"address"},{"name":"newOwner","type":"address","indexed":true,"internalType":"address"}],"anonymous":false},{"type":"event","name":"ProofInvalidated","inputs":[{"name":"proofId","type":"bytes32","indexed":true,"internalType":"bytes32"},{"name":"reason","type":"string","indexed":false,"internalType":"string"}],"anonymous":false},{"type":"event","name":"ProofSubmitted","inputs":[{"name":"proofId","type":"bytes32","indexed":true,"internalType":"bytes32"},{"name":"agentId","type":"bytes32","indexed":true,"internalType":"bytes32"},{"name":"proofHash","type":"bytes32","indexed":false,"internalType":"bytes32"},{"name":"walrusReference","type":"string","indexed":false,"internalType":"string"},{"name":"validator","type":"address","indexed":true,"internalType":"address"}],"anonymous":false},{"type":"event","name":"ProofValidated","inputs":[{"name":"proofId","type":"bytes32","indexed":true,"internalType":"bytes32"},{"name":"isValid","type":"bool","indexed":false,"internalType":"bool"}],"anonymous":false},{"type":"error","name":"OwnableInvalidOwner","inputs":[{"name":"owner","type":"address","internalType":"address"}]},{"type":"error","name":"OwnableUnauthorizedAccount","inputs":[{"name":"account","type":"address","internalType":"address"}]},{"type":"error","name":"ReentrancyGuardReentrantCall","inputs":[]}],"bytecode":{"object":"0x608060405234801561000f575f5ffd5b50335f73ffffffffffffffffffffffffffffffffffffffff168173ffffffffffffffffffffffffffffffffffffffff1603610081575f6040517f1e4fbdf700000000000000000000000000000000000000000000000000000000815260040161007891906101ec565b60405180910390fd5b610090816100ba60201b60201c565b5060016100af6100a461017b60201b60201c565b6101a460201b60201c565b5f0181905550610205565b5f5f5f9054906101000a900473ffffffffffffffffffffffffffffffffffffffff169050815f5f6101000a81548173ffffffffffffffffffffffffffffffffffffffff021916908373ffffffffffffffffffffffffffffffffffffffff1602179055508173ffffffffffffffffffffffffffffffffffffffff168173ffffffffffffffffffffffffffffffffffffffff167f8be0079c531659141344cd1fd0a4f28419497f9722a3daafe3b4186f6b6457e060405160405180910390a35050565b5f7f9b779b17422d0df92223018b32b4d1fa46e071723d6817e2486d003becc55f005f1b905090565b5f819050919050565b5f73ffffffffffffffffffffffffffffffffffffffff82169050919050565b5f6101d6826101ad565b9050919050565b6101e6816101cc565b82525050565b5f6020820190506101ff5f8301846101dd565b92915050565b61229e806102125f395ff3fe608060405234801561000f575f5ffd5b50600436106100fe575f3560e01c806395e9d52111610095578063ae6b0d3711610064578063ae6b0d37146102be578063c52c8a37146102ee578063e4fbe6981461031e578063f2fde38b14610353576100fe565b806395e9d5211461022457806397a3c094146102545780639b024874146102705780639b1bc0c9146102a0576100fe565b8063715018a6116100d1578063715018a6146101ae578063751028ae146101b857806377b0a917146101d65780638da5cb5b14610206576100fe565b806319d3137b146101025780631e5ec841146101325780633a11de73146101625780634c5d7dca14610192575b5f5ffd5b61011c60048036038101906101179190611269565b61036f565b60405161012991906112ae565b60405180910390f35b61014c60048036038101906101479190611436565b610403565b60405161015991906114b1565b60405180910390f35b61017c600480360381019061017791906114ca565b610441565b60405161018991906114b1565b60405180910390f35b6101ac60048036038101906101a79190611565565b61046c565b005b6101b66105ef565b005b6101c0610602565b6040516101cd9190611601565b60405180910390f35b6101f060048036038101906101eb919061161a565b61061a565b6040516101fd91906114b1565b60405180910390f35b61020e61063a565b60405161021b9190611601565b60405180910390f35b61023e60048036038101906102399190611269565b610661565b60405161024b91906116fc565b60405180910390f35b61026e60048036038101906102699190611771565b6106c8565b005b61028a60048036038101906102859190611269565b610af9565b604051610297919061193b565b60405180910390f35b6102a8610ce1565b6040516102b5919061196a565b60405180910390f35b6102d860048036038101906102d3919061161a565b610ced565b6040516102e591906114b1565b60405180910390f35b61030860048036038101906103039190611269565b610d59565b60405161031591906114b1565b60405180910390f35b61033860048036038101906103339190611269565b610e45565b60405161034a969594939291906119cb565b60405180910390f35b61036d60048036038101906103689190611a5b565b610f2e565b005b5f5f73ffffffffffffffffffffffffffffffffffffffff1660015f8481526020019081526020015f206002015f9054906101000a900473ffffffffffffffffffffffffffffffffffffffff1673ffffffffffffffffffffffffffffffffffffffff16141580156103fc575060015f8381526020019081526020015f206004015f9054906101000a900460ff165b9050919050565b5f5f84848460405160200161041a93929190611a86565b60405160208183030381529060405290505f81516020830120905080925050509392505050565b6002602052815f5260405f20818154811061045a575f80fd5b905f5260205f20015f91509150505481565b610474610fb2565b61047c611039565b5f73ffffffffffffffffffffffffffffffffffffffff1660015f8581526020019081526020015f206002015f9054906101000a900473ffffffffffffffffffffffffffffffffffffffff1673ffffffffffffffffffffffffffffffffffffffff160361051d576040517f08c379a000000000000000000000000000000000000000000000000000000000815260040161051490611b0c565b60405180910390fd5b60015f8481526020019081526020015f206004015f9054906101000a900460ff1661057d576040517f08c379a000000000000000000000000000000000000000000000000000000000815260040161057490611b74565b60405180910390fd5b5f60015f8581526020019081526020015f206004015f6101000a81548160ff021916908315150217905550827f150163e62bc7e1a4bce3186b87fa0e45954fd7bc99158efebcb42edcbf59b19e83836040516105da929190611bbe565b60405180910390a26105ea61105b565b505050565b6105f7610fb2565b6106005f611075565b565b73742d35cc6634c0532925a3b8d4c9db96c4b4d8b681565b60038181548110610629575f80fd5b905f5260205f20015f915090505481565b5f5f5f9054906101000a900473ffffffffffffffffffffffffffffffffffffffff16905090565b606060025f8381526020019081526020015f208054806020026020016040519081016040528092919081815260200182805480156106bc57602002820191905f5260205f20905b8154815260200190600101908083116106a8575b50505050509050919050565b6106d0611039565b5f5f1b8703610714576040517f08c379a000000000000000000000000000000000000000000000000000000000815260040161070b90611c2a565b60405180910390fd5b5f5f1b8603610758576040517f08c379a000000000000000000000000000000000000000000000000000000000815260040161074f90611c92565b60405180910390fd5b5f5f1b850361079c576040517f08c379a000000000000000000000000000000000000000000000000000000000815260040161079390611cfa565b60405180910390fd5b5f84849050116107e1576040517f08c379a00000000000000000000000000000000000000000000000000000000081526004016107d890611d62565b60405180910390fd5b5f73ffffffffffffffffffffffffffffffffffffffff1660015f8981526020019081526020015f206002015f9054906101000a900473ffffffffffffffffffffffffffffffffffffffff1673ffffffffffffffffffffffffffffffffffffffff1614610882576040517f08c379a000000000000000000000000000000000000000000000000000000000815260040161087990611dca565b60405180910390fd5b61088d858383611136565b6108cc576040517f08c379a00000000000000000000000000000000000000000000000000000000081526004016108c390611e32565b60405180910390fd5b6040518060c0016040528086815260200185858080601f0160208091040260200160405190810160405280939291908181526020018383808284375f81840152601f19601f8201169050808301925050505050505081526020013373ffffffffffffffffffffffffffffffffffffffff1681526020014281526020016001151581526020018781525060015f8981526020019081526020015f205f820151815f01556020820151816001019081610983919061204d565b506040820151816002015f6101000a81548173ffffffffffffffffffffffffffffffffffffffff021916908373ffffffffffffffffffffffffffffffffffffffff160217905550606082015181600301556080820151816004015f6101000a81548160ff02191690831515021790555060a0820151816005015590505060025f8781526020019081526020015f2087908060018154018082558091505060019003905f5260205f20015f9091909190915055600387908060018154018082558091505060019003905f5260205f20015f90919091909150553373ffffffffffffffffffffffffffffffffffffffff1686887f9022eee5adab7686ee159a53f2c4c8ff864ec4e96aa5f9464f82ac56e751f0e7888888604051610aa79392919061211c565b60405180910390a4867f7c95b3c812213fc28c1ac7cb56fa754db9a106c6216ceac8641477c83d40cdc06001604051610ae091906112ae565b60405180910390a2610af061105b565b50505050505050565b610b016111dc565b5f73ffffffffffffffffffffffffffffffffffffffff1660015f8481526020019081526020015f206002015f9054906101000a900473ffffffffffffffffffffffffffffffffffffffff1673ffffffffffffffffffffffffffffffffffffffff1603610ba2576040517f08c379a0000000000000000000000000000000000000000000000000000000008152600401610b9990611b0c565b60405180910390fd5b60015f8381526020019081526020015f206040518060c00160405290815f8201548152602001600182018054610bd790611e7d565b80601f0160208091040260200160405190810160405280929190818152602001828054610c0390611e7d565b8015610c4e5780601f10610c2557610100808354040283529160200191610c4e565b820191905f5260205f20905b815481529060010190602001808311610c3157829003601f168201915b50505050508152602001600282015f9054906101000a900473ffffffffffffffffffffffffffffffffffffffff1673ffffffffffffffffffffffffffffffffffffffff1673ffffffffffffffffffffffffffffffffffffffff16815260200160038201548152602001600482015f9054906101000a900460ff161515151581526020016005820154815250509050919050565b5f600380549050905090565b5f6003805490508210610d35576040517f08c379a0000000000000000000000000000000000000000000000000000000008152600401610d2c90612196565b60405180910390fd5b60038281548110610d4957610d486121b4565b5b905f5260205f2001549050919050565b5f5f60025f8481526020019081526020015f20805480602002602001604051908101604052809291908181526020018280548015610db457602002820191905f5260205f20905b815481526020019060010190808311610da0575b505050505090505f815190505b5f811115610e38575f82600183610dd8919061220e565b81518110610de957610de86121b4565b5b6020026020010151905060015f8281526020019081526020015f206004015f9054906101000a900460ff1615610e2457809350505050610e40565b508080610e3090612241565b915050610dc1565b505f5f1b9150505b919050565b6001602052805f5260405f205f91509050805f015490806001018054610e6a90611e7d565b80601f0160208091040260200160405190810160405280929190818152602001828054610e9690611e7d565b8015610ee15780601f10610eb857610100808354040283529160200191610ee1565b820191905f5260205f20905b815481529060010190602001808311610ec457829003601f168201915b505050505090806002015f9054906101000a900473ffffffffffffffffffffffffffffffffffffffff1690806003015490806004015f9054906101000a900460ff16908060050154905086565b610f36610fb2565b5f73ffffffffffffffffffffffffffffffffffffffff168173ffffffffffffffffffffffffffffffffffffffff1603610fa6575f6040517f1e4fbdf7000000000000000000000000000000000000000000000000000000008152600401610f9d9190611601565b60405180910390fd5b610faf81611075565b50565b610fba611146565b73ffffffffffffffffffffffffffffffffffffffff16610fd861063a565b73ffffffffffffffffffffffffffffffffffffffff161461103757610ffb611146565b6040517f118cdaa700000000000000000000000000000000000000000000000000000000815260040161102e9190611601565b60405180910390fd5b565b61104161114d565b600261105361104e61118e565b6111b7565b5f0181905550565b600161106d61106861118e565b6111b7565b5f0181905550565b5f5f5f9054906101000a900473ffffffffffffffffffffffffffffffffffffffff169050815f5f6101000a81548173ffffffffffffffffffffffffffffffffffffffff021916908373ffffffffffffffffffffffffffffffffffffffff1602179055508173ffffffffffffffffffffffffffffffffffffffff168173ffffffffffffffffffffffffffffffffffffffff167f8be0079c531659141344cd1fd0a4f28419497f9722a3daafe3b4186f6b6457e060405160405180910390a35050565b5f5f838390501190509392505050565b5f33905090565b6111556111c0565b1561118c576040517f3ee5aeb500000000000000000000000000000000000000000000000000000000815260040160405180910390fd5b565b5f7f9b779b17422d0df92223018b32b4d1fa46e071723d6817e2486d003becc55f005f1b905090565b5f819050919050565b5f60026111d36111ce61118e565b6111b7565b5f015414905090565b6040518060c001604052805f8152602001606081526020015f73ffffffffffffffffffffffffffffffffffffffff1681526020015f81526020015f151581526020015f81525090565b5f604051905090565b5f5ffd5b5f5ffd5b5f819050919050565b61124881611236565b8114611252575f5ffd5b50565b5f813590506112638161123f565b92915050565b5f6020828403121561127e5761127d61122e565b5b5f61128b84828501611255565b91505092915050565b5f8115159050919050565b6112a881611294565b82525050565b5f6020820190506112c15f83018461129f565b92915050565b5f5ffd5b5f5ffd5b5f601f19601f8301169050919050565b7f4e487b71000000000000000000000000000000000000000000000000000000005f52604160045260245ffd5b611315826112cf565b810181811067ffffffffffffffff82111715611334576113336112df565b5b80604052505050565b5f611346611225565b9050611352828261130c565b919050565b5f67ffffffffffffffff821115611371576113706112df565b5b61137a826112cf565b9050602081019050919050565b828183375f83830152505050565b5f6113a76113a284611357565b61133d565b9050828152602081018484840111156113c3576113c26112cb565b5b6113ce848285611387565b509392505050565b5f82601f8301126113ea576113e96112c7565b5b81356113fa848260208601611395565b91505092915050565b5f819050919050565b61141581611403565b811461141f575f5ffd5b50565b5f813590506114308161140c565b92915050565b5f5f5f6060848603121561144d5761144c61122e565b5b5f61145a86828701611255565b935050602084013567ffffffffffffffff81111561147b5761147a611232565b5b611487868287016113d6565b925050604061149886828701611422565b9150509250925092565b6114ab81611236565b82525050565b5f6020820190506114c45f8301846114a2565b92915050565b5f5f604083850312156114e0576114df61122e565b5b5f6114ed85828601611255565b92505060206114fe85828601611422565b9150509250929050565b5f5ffd5b5f5ffd5b5f5f83601f840112611525576115246112c7565b5b8235905067ffffffffffffffff81111561154257611541611508565b5b60208301915083600182028301111561155e5761155d61150c565b5b9250929050565b5f5f5f6040848603121561157c5761157b61122e565b5b5f61158986828701611255565b935050602084013567ffffffffffffffff8111156115aa576115a9611232565b5b6115b686828701611510565b92509250509250925092565b5f73ffffffffffffffffffffffffffffffffffffffff82169050919050565b5f6115eb826115c2565b9050919050565b6115fb816115e1565b82525050565b5f6020820190506116145f8301846115f2565b92915050565b5f6020828403121561162f5761162e61122e565b5b5f61163c84828501611422565b91505092915050565b5f81519050919050565b5f82825260208201905092915050565b5f819050602082019050919050565b61167781611236565b82525050565b5f611688838361166e565b60208301905092915050565b5f602082019050919050565b5f6116aa82611645565b6116b4818561164f565b93506116bf8361165f565b805f5b838110156116ef5781516116d6888261167d565b97506116e183611694565b9250506001810190506116c2565b5085935050505092915050565b5f6020820190508181035f83015261171481846116a0565b905092915050565b5f5f83601f840112611731576117306112c7565b5b8235905067ffffffffffffffff81111561174e5761174d611508565b5b60208301915083600182028301111561176a5761176961150c565b5b9250929050565b5f5f5f5f5f5f5f60a0888a03121561178c5761178b61122e565b5b5f6117998a828b01611255565b97505060206117aa8a828b01611255565b96505060406117bb8a828b01611255565b955050606088013567ffffffffffffffff8111156117dc576117db611232565b5b6117e88a828b01611510565b9450945050608088013567ffffffffffffffff81111561180b5761180a611232565b5b6118178a828b0161171c565b925092505092959891949750929550565b5f81519050919050565b5f82825260208201905092915050565b8281835e5f83830152505050565b5f61185a82611828565b6118648185611832565b9350611874818560208601611842565b61187d816112cf565b840191505092915050565b611891816115e1565b82525050565b6118a081611403565b82525050565b6118af81611294565b82525050565b5f60c083015f8301516118ca5f86018261166e565b50602083015184820360208601526118e28282611850565b91505060408301516118f76040860182611888565b50606083015161190a6060860182611897565b50608083015161191d60808601826118a6565b5060a083015161193060a086018261166e565b508091505092915050565b5f6020820190508181035f83015261195381846118b5565b905092915050565b61196481611403565b82525050565b5f60208201905061197d5f83018461195b565b92915050565b5f82825260208201905092915050565b5f61199d82611828565b6119a78185611983565b93506119b7818560208601611842565b6119c0816112cf565b840191505092915050565b5f60c0820190506119de5f8301896114a2565b81810360208301526119f08188611993565b90506119ff60408301876115f2565b611a0c606083018661195b565b611a19608083018561129f565b611a2660a08301846114a2565b979650505050505050565b611a3a816115e1565b8114611a44575f5ffd5b50565b5f81359050611a5581611a31565b92915050565b5f60208284031215611a7057611a6f61122e565b5b5f611a7d84828501611a47565b91505092915050565b5f606082019050611a995f8301866114a2565b8181036020830152611aab8185611993565b9050611aba604083018461195b565b949350505050565b7f50726f6f6620646f6573206e6f742065786973740000000000000000000000005f82015250565b5f611af6601483611983565b9150611b0182611ac2565b602082019050919050565b5f6020820190508181035f830152611b2381611aea565b9050919050565b7f50726f6f6620616c726561647920696e76616c696400000000000000000000005f82015250565b5f611b5e601583611983565b9150611b6982611b2a565b602082019050919050565b5f6020820190508181035f830152611b8b81611b52565b9050919050565b5f611b9d8385611983565b9350611baa838584611387565b611bb3836112cf565b840190509392505050565b5f6020820190508181035f830152611bd7818486611b92565b90509392505050565b7f496e76616c69642070726f6f66204944000000000000000000000000000000005f82015250565b5f611c14601083611983565b9150611c1f82611be0565b602082019050919050565b5f6020820190508181035f830152611c4181611c08565b9050919050565b7f496e76616c6964206167656e74204944000000000000000000000000000000005f82015250565b5f611c7c601083611983565b9150611c8782611c48565b602082019050919050565b5f6020820190508181035f830152611ca981611c70565b9050919050565b7f496e76616c69642070726f6f66206861736800000000000000000000000000005f82015250565b5f611ce4601283611983565b9150611cef82611cb0565b602082019050919050565b5f6020820190508181035f830152611d1181611cd8565b9050919050565b7f57616c727573207265666572656e63652063616e6e6f7420626520656d7074795f82015250565b5f611d4c602083611983565b9150611d5782611d18565b602082019050919050565b5f6020820190508181035f830152611d7981611d40565b9050919050565b7f50726f6f6620616c7265616479206578697374730000000000000000000000005f82015250565b5f611db4601483611983565b9150611dbf82611d80565b602082019050919050565b5f6020820190508181035f830152611de181611da8565b9050919050565b7f496e76616c696420544545207369676e617475726500000000000000000000005f82015250565b5f611e1c601583611983565b9150611e2782611de8565b602082019050919050565b5f6020820190508181035f830152611e4981611e10565b9050919050565b7f4e487b71000000000000000000000000000000000000000000000000000000005f52602260045260245ffd5b5f6002820490506001821680611e9457607f821691505b602082108103611ea757611ea6611e50565b5b50919050565b5f819050815f5260205f209050919050565b5f6020601f8301049050919050565b5f82821b905092915050565b5f60088302611f097fffffffffffffffffffffffffffffffffffffffffffffffffffffffffffffffff82611ece565b611f138683611ece565b95508019841693508086168417925050509392505050565b5f819050919050565b5f611f4e611f49611f4484611403565b611f2b565b611403565b9050919050565b5f819050919050565b611f6783611f34565b611f7b611f7382611f55565b848454611eda565b825550505050565b5f5f905090565b611f92611f83565b611f9d818484611f5e565b505050565b5b81811015611fc057611fb55f82611f8a565b600181019050611fa3565b5050565b601f82111561200557611fd681611ead565b611fdf84611ebf565b81016020851015611fee578190505b612002611ffa85611ebf565b830182611fa2565b50505b505050565b5f82821c905092915050565b5f6120255f198460080261200a565b1980831691505092915050565b5f61203d8383612016565b9150826002028217905092915050565b61205682611828565b67ffffffffffffffff81111561206f5761206e6112df565b5b6120798254611e7d565b612084828285611fc4565b5f60209050601f8311600181146120b5575f84156120a3578287015190505b6120ad8582612032565b865550612114565b601f1984166120c386611ead565b5f5b828110156120ea578489015182556001820191506020850194506020810190506120c5565b868310156121075784890151612103601f891682612016565b8355505b6001600288020188555050505b505050505050565b5f60408201905061212f5f8301866114a2565b8181036020830152612142818486611b92565b9050949350505050565b7f496e646578206f7574206f6620626f756e6473000000000000000000000000005f82015250565b5f612180601383611983565b915061218b8261214c565b602082019050919050565b5f6020820190508181035f8301526121ad81612174565b9050919050565b7f4e487b71000000000000000000000000000000000000000000000000000000005f52603260045260245ffd5b7f4e487b71000000000000000000000000000000000000000000000000000000005f52601160045260245ffd5b5f61221882611403565b915061222383611403565b925082820390508181111561223b5761223a6121e1565b5b92915050565b5f61224b82611403565b91505f820361225d5761225c6121e1565b5b60018203905091905056fea2646970667358221220c188c77590fabaf048a90e6eecea46d84b0fe20bb56d417848032c192159626164736f6c634300081e0033","linkReferences":{}},"methodIdentifiers":{"MOCK_TEE_PUBLIC_KEY()":"751028ae","agentProofs(bytes32,uint256)":"3a11de73","allProofIds(uint256)":"77b0a917","generateMockProofHash(bytes32,string,uint256)":"1e5ec841","getLatestValidProof(bytes32)":"c52c8a37","getProofIdByIndex(uint256)":"ae6b0d37","getProofsByAgent(bytes32)":"95e9d521","getTotalProofs()":"9b1bc0c9","getValidationProof(bytes32)":"9b024874","invalidateProof(bytes32,string)":"4c5d7dca","isProofValid(bytes32)":"19d3137b","owner()":"8da5cb5b","renounceOwnership()":"715018a6","submitProof(bytes32,bytes32,bytes32,string,bytes)":"97a3c094","transferOwnership(address)":"f2fde38b","validationProofs(bytes32)":"e4fbe698"},"id":34}