{"abi":[{"type":"constructor","inputs":[],"stateMutability":"nonpayable"},{"type":"function","name":"MOCK_WALRUS_ENDPOINT","inputs":[],"outputs":[{"name":"","type":"string","internalType":"string"}],"stateMutability":"view"},{"type":"function","name":"allWalrusIds","inputs":[{"name":"","type":"uint256","internalType":"uint256"}],"outputs":[{"name":"","type":"string","internalType":"string"}],"stateMutability":"view"},{"type":"function","name":"deleteProof","inputs":[{"name":"walrusId","type":"string","internalType":"string"}],"outputs":[],"stateMutability":"nonpayable"},{"type":"function","name":"getTotalProofs","inputs":[],"outputs":[{"name":"","type":"uint256","internalType":"uint256"}],"stateMutability":"view"},{"type":"function","name":"getWalrusEndpoint","inputs":[],"outputs":[{"name":"","type":"string","internalType":"string"}],"stateMutability":"pure"},{"type":"function","name":"getWalrusEntry","inputs":[{"name":"walrusId","type":"string","internalType":"string"}],"outputs":[{"name":"","type":"tuple","internalType":"struct WalrusIntegration.WalrusEntry","components":[{"name":"walrusId","type":"string","internalType":"string"},{"name":"proofHash","type":"bytes32","internalType":"bytes32"},{"name":"agentId","type":"bytes32","internalType":"bytes32"},{"name":"storedAt","type":"uint256","internalType":"uint256"},{"name":"size","type":"uint256","internalType":"uint256"},{"name":"isActive","type":"bool","internalType":"bool"}]}],"stateMutability":"view"},{"type":"function","name":"getWalrusIdByIndex","inputs":[{"name":"index","type":"uint256","internalType":"uint256"}],"outputs":[{"name":"","type":"string","internalType":"string"}],"stateMutability":"view"},{"type":"function","name":"getWalrusIdByProofHash","inputs":[{"name":"proofHash","type":"bytes32","internalType":"bytes32"}],"outputs":[{"name":"walrusId","type":"string","internalType":"string"}],"stateMutability":"view"},{"type":"function","name":"owner","inputs":[],"outputs":[{"name":"","type":"address","internalType":"address"}],"stateMutability":"view"},{"type":"function","name":"proofExists","inputs":[{"name":"proofHash","type":"bytes32","internalType":"bytes32"}],"outputs":[{"name":"","type":"bool","internalType":"bool"}],"stateMutability":"view"},{"type":"function","name":"proofHashToWalrusId","inputs":[{"name":"","type":"bytes32","internalType":"bytes32"}],"outputs":[{"name":"","type":"string","internalType":"string"}],"stateMutability":"view"},{"type":"function","name":"renounceOwnership","inputs":[],"outputs":[],"stateMutability":"nonpayable"},{"type":"function","name":"retrieveProof","inputs":[{"name":"walrusId","type":"string","internalType":"string"}],"outputs":[{"name":"proofHash","type":"bytes32","internalType":"bytes32"},{"name":"agentId","type":"bytes32","internalType":"bytes32"},{"name":"storedAt","type":"uint256","internalType":"uint256"},{"name":"size","type":"uint256","internalType":"uint256"}],"stateMutability":"view"},{"type":"function","name":"storeProof","inputs":[{"name":"proofData","type":"bytes","internalType":"bytes"},{"name":"agentId","type":"bytes32","internalType":"bytes32"}],"outputs":[{"name":"walrusId","type":"string","internalType":"string"},{"name":"proofHash","type":"bytes32","internalType":"bytes32"}],"stateMutability":"nonpayable"},{"type":"function","name":"transferOwnership","inputs":[{"name":"newOwner","type":"address","internalType":"address"}],"outputs":[],"stateMutability":"nonpayable"},{"type":"function","name":"walrusEntries","inputs":[{"name":"","type":"string","internalType":"string"}],"outputs":[{"name":"walrusId","type":"string","internalType":"string"},{"name":"proofHash","type":"bytes32","internalType":"bytes32"},{"name":"agentId","type":"bytes32","internalType":"bytes32"},{"name":"storedAt","type":"uint256","internalType":"uint256"},{"name":"size","type":"uint256","internalType":"uint256"},{"name":"isActive","type":"bool","internalType":"bool"}],"stateMutability":"view"},{"type":"event","name":"OwnershipTransferred","inputs":[{"name":"previousOwner","type":"address","indexed":true,"internalType":"address"},{"name":"newOwner","type":"address","indexed":true,"internalType":"address"}],"anonymous":false},{"type":"event","name":"ProofDeleted","inputs":[{"name":"walrusId","type":"string","indexed":true,"internalType":"string"},{"name":"proofHash","type":"bytes32","indexed":true,"internalType":"bytes32"}],"anonymous":false},{"type":"event","name":"ProofRetrieved","inputs":[{"name":"walrusId","type":"string","indexed":true,"internalType":"string"},{"name":"proofHash","type":"bytes32","indexed":true,"internalType":"bytes32"}],"anonymous":false},{"type":"event","name":"ProofStored","inputs":[{"name":"walrusId","type":"string","indexed":true,"internalType":"string"},{"name":"proofHash","type":"bytes32","indexed":true,"internalType":"bytes32"},{"name":"agentId","type":"bytes32","indexed":true,"internalType":"bytes32"},{"name":"size","type":"uint256","indexed":false,"internalType":"uint256"}],"anonymous":false},{"type":"error","name":"OwnableInvalidOwner","inputs":[{"name":"owner","type":"address","internalType":"address"}]},{"type":"error","name":"OwnableUnauthorizedAccount","inputs":[{"name":"account","type":"address","internalType":"address"}]},{"type":"error","name":"ReentrancyGuardReentrantCall","inputs":[]}],"bytecode":{"object":"0x608060405234801561000f575f5ffd5b50335f73ffffffffffffffffffffffffffffffffffffffff168173ffffffffffffffffffffffffffffffffffffffff1603610081575f6040517f1e4fbdf700000000000000000000000000000000000000000000000000000000815260040161007891906101ec565b60405180910390fd5b610090816100ba60201b60201c565b5060016100af6100a461017b60201b60201c565b6101a460201b60201c565b5f0181905550610205565b5f5f5f9054906101000a900473ffffffffffffffffffffffffffffffffffffffff169050815f5f6101000a81548173ffffffffffffffffffffffffffffffffffffffff021916908373ffffffffffffffffffffffffffffffffffffffff1602179055508173ffffffffffffffffffffffffffffffffffffffff168173ffffffffffffffffffffffffffffffffffffffff167f8be0079c531659141344cd1fd0a4f28419497f9722a3daafe3b4186f6b6457e060405160405180910390a35050565b5f7f9b779b17422d0df92223018b32b4d1fa46e071723d6817e2486d003becc55f005f1b905090565b5f819050919050565b5f73ffffffffffffffffffffffffffffffffffffffff82169050919050565b5f6101d6826101ad565b9050919050565b6101e6816101cc565b82525050565b5f6020820190506101ff5f8301846101dd565b92915050565b6129d1806102125f395ff3fe608060405234801561000f575f5ffd5b50600436106100fe575f3560e01c80638da5cb5b11610095578063d938d20211610064578063d938d202146102db578063e14dba931461030b578063eff65b0714610329578063f2fde38b14610359576100fe565b80638da5cb5b1461023f57806398f7eba01461025d5780639b1bc0c91461028d578063caba2478146102ab576100fe565b8063341819db116100d1578063341819db146101c6578063715018a6146101e45780637d7ae52d146101ee578063818299671461020a576100fe565b80630b0bb3f9146101025780631ebadbab14610132578063212051e81461016557806322d65e7614610195575b5f5ffd5b61011c6004803603810190610117919061181a565b610375565b60405161012991906119a5565b60405180910390f35b61014c6004803603810190610147919061181a565b610535565b60405161015c94939291906119e3565b60405180910390f35b61017f600480360381019061017a9190611a50565b610712565b60405161018c9190611ac3565b60405180910390f35b6101af60048036038101906101aa9190611b62565b610805565b6040516101bd929190611bbf565b60405180910390f35b6101ce610aee565b6040516101db9190611ac3565b60405180910390f35b6101ec610b0e565b005b6102086004803603810190610203919061181a565b610b21565b005b610224600480360381019061021f9190611d15565b610cb4565b60405161023696959493929190611d6b565b60405180910390f35b610247610d96565b6040516102549190611e10565b60405180910390f35b61027760048036038101906102729190611e29565b610dbd565b6040516102849190611ac3565b60405180910390f35b610295610e58565b6040516102a29190611e54565b60405180910390f35b6102c560048036038101906102c09190611a50565b610e64565b6040516102d29190611ac3565b60405180910390f35b6102f560048036038101906102f09190611e29565b610f0a565b6040516103029190611e6d565b60405180910390f35b610313610fe8565b6040516103209190611ac3565b60405180910390f35b610343600480360381019061033e9190611e29565b611004565b6040516103509190611ac3565b60405180910390f35b610373600480360381019061036e9190611eb0565b6110e8565b005b61037d61171d565b5f83839050116103c2576040517f08c379a00000000000000000000000000000000000000000000000000000000081526004016103b990611f25565b60405180910390fd5b600183836040516103d4929190611f71565b90815260200160405180910390206005015f9054906101000a900460ff16610431576040517f08c379a000000000000000000000000000000000000000000000000000000000815260040161042890611fd3565b60405180910390fd5b60018383604051610443929190611f71565b90815260200160405180910390206040518060c00160405290815f8201805461046b9061201e565b80601f01602080910402602001604051908101604052809291908181526020018280546104979061201e565b80156104e25780601f106104b9576101008083540402835291602001916104e2565b820191905f5260205f20905b8154815290600101906020018083116104c557829003601f168201915b5050505050815260200160018201548152602001600282015481526020016003820154815260200160048201548152602001600582015f9054906101000a900460ff161515151581525050905092915050565b5f5f5f5f5f868690501161057e576040517f08c379a000000000000000000000000000000000000000000000000000000000815260040161057590611f25565b60405180910390fd5b60018686604051610590929190611f71565b90815260200160405180910390206005015f9054906101000a900460ff166105ed576040517f08c379a00000000000000000000000000000000000000000000000000000000081526004016105e490611fd3565b60405180910390fd5b5f60018787604051610600929190611f71565b90815260200160405180910390206040518060c00160405290815f820180546106289061201e565b80601f01602080910402602001604051908101604052809291908181526020018280546106549061201e565b801561069f5780601f106106765761010080835404028352916020019161069f565b820191905f5260205f20905b81548152906001019060200180831161068257829003601f168201915b5050505050815260200160018201548152602001600282015481526020016003820154815260200160048201548152602001600582015f9054906101000a900460ff1615151515815250509050806020015181604001518260600151836080015194509450945094505092959194509250565b6060600380549050821061075b576040517f08c379a000000000000000000000000000000000000000000000000000000000815260040161075290612098565b60405180910390fd5b6003828154811061076f5761076e6120b6565b5b905f5260205f200180546107829061201e565b80601f01602080910402602001604051908101604052809291908181526020018280546107ae9061201e565b80156107f95780601f106107d0576101008083540402835291602001916107f9565b820191905f5260205f20905b8154815290600101906020018083116107dc57829003601f168201915b50505050509050919050565b60605f61081061116c565b5f8585905011610855576040517f08c379a000000000000000000000000000000000000000000000000000000000815260040161084c9061212d565b60405180910390fd5b5f5f1b8303610899576040517f08c379a000000000000000000000000000000000000000000000000000000000815260040161089090612195565b60405180910390fd5b84846040516108a99291906121e1565b604051809103902090505f60025f8381526020019081526020015f2080546108d09061201e565b905014610912576040517f08c379a000000000000000000000000000000000000000000000000000000000815260040161090990612243565b60405180910390fd5b61091c818461118e565b91505f60018360405161092f9190612291565b90815260200160405180910390205f01805461094a9061201e565b90501461098c576040517f08c379a0000000000000000000000000000000000000000000000000000000008152600401610983906122f1565b60405180910390fd5b6040518060c00160405280838152602001828152602001848152602001428152602001868690508152602001600115158152506001836040516109cf9190612291565b90815260200160405180910390205f820151815f0190816109f091906124af565b506020820151816001015560408201518160020155606082015181600301556080820151816004015560a0820151816005015f6101000a81548160ff0219169083151502179055509050508160025f8381526020019081526020015f209081610a5991906124af565b50600382908060018154018082558091505060019003905f5260205f20015f909190919091509081610a8b91906124af565b50828183604051610a9c9190612291565b60405180910390207f718e296dee3f3f4b7362080d4fab26bf224bc8afed178145089b76998656693288889050604051610ad69190611e54565b60405180910390a4610ae66111d4565b935093915050565b606060405180606001604052806026815260200161297660269139905090565b610b166111ee565b610b1f5f611275565b565b610b296111ee565b610b3161116c565b5f8282905011610b76576040517f08c379a0000000000000000000000000000000000000000000000000000000008152600401610b6d90611f25565b60405180910390fd5b60018282604051610b88929190611f71565b90815260200160405180910390206005015f9054906101000a900460ff16610be5576040517f08c379a0000000000000000000000000000000000000000000000000000000008152600401610bdc906125ee565b60405180910390fd5b5f60018383604051610bf8929190611f71565b90815260200160405180910390206001015490505f60018484604051610c1f929190611f71565b90815260200160405180910390206005015f6101000a81548160ff02191690831515021790555060025f8281526020019081526020015f205f610c629190611750565b808383604051610c73929190611f71565b60405180910390207fd0cea8cada51ec84b26c7f2f67de375775b1c2c9703be957ef5ea300dc350fd960405160405180910390a350610cb06111d4565b5050565b6001818051602081018201805184825260208301602085012081835280955050505050505f91509050805f018054610ceb9061201e565b80601f0160208091040260200160405190810160405280929190818152602001828054610d179061201e565b8015610d625780601f10610d3957610100808354040283529160200191610d62565b820191905f5260205f20905b815481529060010190602001808311610d4557829003601f168201915b505050505090806001015490806002015490806003015490806004015490806005015f9054906101000a900460ff16905086565b5f5f5f9054906101000a900473ffffffffffffffffffffffffffffffffffffffff16905090565b6002602052805f5260405f205f915090508054610dd99061201e565b80601f0160208091040260200160405190810160405280929190818152602001828054610e059061201e565b8015610e505780601f10610e2757610100808354040283529160200191610e50565b820191905f5260205f20905b815481529060010190602001808311610e3357829003601f168201915b505050505081565b5f600380549050905090565b60038181548110610e73575f80fd5b905f5260205f20015f915090508054610e8b9061201e565b80601f0160208091040260200160405190810160405280929190818152602001828054610eb79061201e565b8015610f025780601f10610ed957610100808354040283529160200191610f02565b820191905f5260205f20905b815481529060010190602001808311610ee557829003601f168201915b505050505081565b5f5f60025f8481526020019081526020015f208054610f289061201e565b80601f0160208091040260200160405190810160405280929190818152602001828054610f549061201e565b8015610f9f5780601f10610f7657610100808354040283529160200191610f9f565b820191905f5260205f20905b815481529060010190602001808311610f8257829003601f168201915b505050505090505f8151118015610fe05750600181604051610fc19190612291565b90815260200160405180910390206005015f9054906101000a900460ff165b915050919050565b6040518060600160405280602681526020016129766026913981565b606060025f8381526020019081526020015f2080546110229061201e565b80601f016020809104026020016040519081016040528092919081815260200182805461104e9061201e565b80156110995780601f1061107057610100808354040283529160200191611099565b820191905f5260205f20905b81548152906001019060200180831161107c57829003601f168201915b505050505090505f8151116110e3576040517f08c379a00000000000000000000000000000000000000000000000000000000081526004016110da90612656565b60405180910390fd5b919050565b6110f06111ee565b5f73ffffffffffffffffffffffffffffffffffffffff168173ffffffffffffffffffffffffffffffffffffffff1603611160575f6040517f1e4fbdf70000000000000000000000000000000000000000000000000000000081526004016111579190611e10565b60405180910390fd5b61116981611275565b50565b611174611336565b6002611186611181611377565b6113a0565b5f0181905550565b6060611199836113a9565b6111a2836113a9565b6111ab42611515565b6040516020016111bd93929190612708565b604051602081830303815290604052905092915050565b60016111e66111e1611377565b6113a0565b5f0181905550565b6111f661166e565b73ffffffffffffffffffffffffffffffffffffffff16611214610d96565b73ffffffffffffffffffffffffffffffffffffffff16146112735761123761166e565b6040517f118cdaa700000000000000000000000000000000000000000000000000000000815260040161126a9190611e10565b60405180910390fd5b565b5f5f5f9054906101000a900473ffffffffffffffffffffffffffffffffffffffff169050815f5f6101000a81548173ffffffffffffffffffffffffffffffffffffffff021916908373ffffffffffffffffffffffffffffffffffffffff1602179055508173ffffffffffffffffffffffffffffffffffffffff168173ffffffffffffffffffffffffffffffffffffffff167f8be0079c531659141344cd1fd0a4f28419497f9722a3daafe3b4186f6b6457e060405160405180910390a35050565b61133e611675565b15611375576040517f3ee5aeb500000000000000000000000000000000000000000000000000000000815260040160405180910390fd5b565b5f7f9b779b17422d0df92223018b32b4d1fa46e071723d6817e2486d003becc55f005f1b905090565b5f819050919050565b60605f604067ffffffffffffffff8111156113c7576113c6611bf1565b5b6040519080825280601f01601f1916602001820160405280156113f95781602001600182028036833780820191505090505b5090505f5f90505b602081101561150b576114336004858360208110611422576114216120b6565b5b1a60f81b60f81c60ff16901c611691565b826002836114419190612786565b81518110611452576114516120b6565b5b60200101907effffffffffffffffffffffffffffffffffffffffffffffffffffffffffffff191690815f1a9053506114a5600f858360208110611498576114976120b6565b5b1a60f81b60f81c16611691565b8260016002846114b59190612786565b6114bf91906127c7565b815181106114d0576114cf6120b6565b5b60200101907effffffffffffffffffffffffffffffffffffffffffffffffffffffffffffff191690815f1a9053508080600101915050611401565b5080915050919050565b60605f820361155b576040518060400160405280600181526020017f30000000000000000000000000000000000000000000000000000000000000008152509050611669565b5f8290505f5b5f821461158a578080611573906127fa565b915050600a82611583919061286e565b9150611561565b5f8167ffffffffffffffff8111156115a5576115a4611bf1565b5b6040519080825280601f01601f1916602001820160405280156115d75781602001600182028036833780820191505090505b5090505b5f8514611662576001826115ef919061289e565b9150600a856115fe91906128d1565b603061160a91906127c7565b60f81b8183815181106116205761161f6120b6565b5b60200101907effffffffffffffffffffffffffffffffffffffffffffffffffffffffffffff191690815f1a905350600a8561165b919061286e565b94506115db565b8093505050505b919050565b5f33905090565b5f6002611688611683611377565b6113a0565b5f015414905090565b5f600a8260ff1610156116d757817f300000000000000000000000000000000000000000000000000000000000000060f81c6116cd919061290d565b60f81b9050611718565b600a827f610000000000000000000000000000000000000000000000000000000000000060f81c611708919061290d565b6117129190612941565b60f81b90505b919050565b6040518060c00160405280606081526020015f81526020015f81526020015f81526020015f81526020015f151581525090565b50805461175c9061201e565b5f825580601f1061176d575061178a565b601f0160209004905f5260205f2090810190611789919061178d565b5b50565b5b808211156117a4575f815f90555060010161178e565b5090565b5f604051905090565b5f5ffd5b5f5ffd5b5f5ffd5b5f5ffd5b5f5ffd5b5f5f83601f8401126117da576117d96117b9565b5b8235905067ffffffffffffffff8111156117f7576117f66117bd565b5b602083019150836001820283011115611813576118126117c1565b5b9250929050565b5f5f602083850312156118305761182f6117b1565b5b5f83013567ffffffffffffffff81111561184d5761184c6117b5565b5b611859858286016117c5565b92509250509250929050565b5f81519050919050565b5f82825260208201905092915050565b8281835e5f83830152505050565b5f601f19601f8301169050919050565b5f6118a782611865565b6118b1818561186f565b93506118c181856020860161187f565b6118ca8161188d565b840191505092915050565b5f819050919050565b6118e7816118d5565b82525050565b5f819050919050565b6118ff816118ed565b82525050565b5f8115159050919050565b61191981611905565b82525050565b5f60c083015f8301518482035f860152611939828261189d565b915050602083015161194e60208601826118de565b50604083015161196160408601826118de565b50606083015161197460608601826118f6565b50608083015161198760808601826118f6565b5060a083015161199a60a0860182611910565b508091505092915050565b5f6020820190508181035f8301526119bd818461191f565b905092915050565b6119ce816118d5565b82525050565b6119dd816118ed565b82525050565b5f6080820190506119f65f8301876119c5565b611a0360208301866119c5565b611a1060408301856119d4565b611a1d60608301846119d4565b95945050505050565b611a2f816118ed565b8114611a39575f5ffd5b50565b5f81359050611a4a81611a26565b92915050565b5f60208284031215611a6557611a646117b1565b5b5f611a7284828501611a3c565b91505092915050565b5f82825260208201905092915050565b5f611a9582611865565b611a9f8185611a7b565b9350611aaf81856020860161187f565b611ab88161188d565b840191505092915050565b5f6020820190508181035f830152611adb8184611a8b565b905092915050565b5f5f83601f840112611af857611af76117b9565b5b8235905067ffffffffffffffff811115611b1557611b146117bd565b5b602083019150836001820283011115611b3157611b306117c1565b5b9250929050565b611b41816118d5565b8114611b4b575f5ffd5b50565b5f81359050611b5c81611b38565b92915050565b5f5f5f60408486031215611b7957611b786117b1565b5b5f84013567ffffffffffffffff811115611b9657611b956117b5565b5b611ba286828701611ae3565b93509350506020611bb586828701611b4e565b9150509250925092565b5f6040820190508181035f830152611bd78185611a8b565b9050611be660208301846119c5565b9392505050565b5f5ffd5b7f4e487b71000000000000000000000000000000000000000000000000000000005f52604160045260245ffd5b611c278261188d565b810181811067ffffffffffffffff82111715611c4657611c45611bf1565b5b80604052505050565b5f611c586117a8565b9050611c648282611c1e565b919050565b5f67ffffffffffffffff821115611c8357611c82611bf1565b5b611c8c8261188d565b9050602081019050919050565b828183375f83830152505050565b5f611cb9611cb484611c69565b611c4f565b905082815260208101848484011115611cd557611cd4611bed565b5b611ce0848285611c99565b509392505050565b5f82601f830112611cfc57611cfb6117b9565b5b8135611d0c848260208601611ca7565b91505092915050565b5f60208284031215611d2a57611d296117b1565b5b5f82013567ffffffffffffffff811115611d4757611d466117b5565b5b611d5384828501611ce8565b91505092915050565b611d6581611905565b82525050565b5f60c0820190508181035f830152611d838189611a8b565b9050611d9260208301886119c5565b611d9f60408301876119c5565b611dac60608301866119d4565b611db960808301856119d4565b611dc660a0830184611d5c565b979650505050505050565b5f73ffffffffffffffffffffffffffffffffffffffff82169050919050565b5f611dfa82611dd1565b9050919050565b611e0a81611df0565b82525050565b5f602082019050611e235f830184611e01565b92915050565b5f60208284031215611e3e57611e3d6117b1565b5b5f611e4b84828501611b4e565b91505092915050565b5f602082019050611e675f8301846119d4565b92915050565b5f602082019050611e805f830184611d5c565b92915050565b611e8f81611df0565b8114611e99575f5ffd5b50565b5f81359050611eaa81611e86565b92915050565b5f60208284031215611ec557611ec46117b1565b5b5f611ed284828501611e9c565b91505092915050565b7f57616c7275732049442063616e6e6f7420626520656d707479000000000000005f82015250565b5f611f0f601983611a7b565b9150611f1a82611edb565b602082019050919050565b5f6020820190508181035f830152611f3c81611f03565b9050919050565b5f81905092915050565b5f611f588385611f43565b9350611f65838584611c99565b82840190509392505050565b5f611f7d828486611f4d565b91508190509392505050565b7f50726f6f66206e6f7420666f756e64206f7220696e61637469766500000000005f82015250565b5f611fbd601b83611a7b565b9150611fc882611f89565b602082019050919050565b5f6020820190508181035f830152611fea81611fb1565b9050919050565b7f4e487b71000000000000000000000000000000000000000000000000000000005f52602260045260245ffd5b5f600282049050600182168061203557607f821691505b60208210810361204857612047611ff1565b5b50919050565b7f496e646578206f7574206f6620626f756e6473000000000000000000000000005f82015250565b5f612082601383611a7b565b915061208d8261204e565b602082019050919050565b5f6020820190508181035f8301526120af81612076565b9050919050565b7f4e487b71000000000000000000000000000000000000000000000000000000005f52603260045260245ffd5b7f50726f6f6620646174612063616e6e6f7420626520656d7074790000000000005f82015250565b5f612117601a83611a7b565b9150612122826120e3565b602082019050919050565b5f6020820190508181035f8301526121448161210b565b9050919050565b7f496e76616c6964206167656e74204944000000000000000000000000000000005f82015250565b5f61217f601083611a7b565b915061218a8261214b565b602082019050919050565b5f6020820190508181035f8301526121ac81612173565b9050919050565b5f81905092915050565b5f6121c883856121b3565b93506121d5838584611c99565b82840190509392505050565b5f6121ed8284866121bd565b91508190509392505050565b7f50726f6f6620616c72656164792073746f7265640000000000000000000000005f82015250565b5f61222d601483611a7b565b9150612238826121f9565b602082019050919050565b5f6020820190508181035f83015261225a81612221565b9050919050565b5f61226b82611865565b6122758185611f43565b935061228581856020860161187f565b80840191505092915050565b5f61229c8284612261565b915081905092915050565b7f57616c72757320494420616c72656164792065786973747300000000000000005f82015250565b5f6122db601883611a7b565b91506122e6826122a7565b602082019050919050565b5f6020820190508181035f830152612308816122cf565b9050919050565b5f819050815f5260205f209050919050565b5f6020601f8301049050919050565b5f82821b905092915050565b5f6008830261236b7fffffffffffffffffffffffffffffffffffffffffffffffffffffffffffffffff82612330565b6123758683612330565b95508019841693508086168417925050509392505050565b5f819050919050565b5f6123b06123ab6123a6846118ed565b61238d565b6118ed565b9050919050565b5f819050919050565b6123c983612396565b6123dd6123d5826123b7565b84845461233c565b825550505050565b5f5f905090565b6123f46123e5565b6123ff8184846123c0565b505050565b5b81811015612422576124175f826123ec565b600181019050612405565b5050565b601f821115612467576124388161230f565b61244184612321565b81016020851015612450578190505b61246461245c85612321565b830182612404565b50505b505050565b5f82821c905092915050565b5f6124875f198460080261246c565b1980831691505092915050565b5f61249f8383612478565b9150826002028217905092915050565b6124b882611865565b67ffffffffffffffff8111156124d1576124d0611bf1565b5b6124db825461201e565b6124e6828285612426565b5f60209050601f831160018114612517575f8415612505578287015190505b61250f8582612494565b865550612576565b601f1984166125258661230f565b5f5b8281101561254c57848901518255600182019150602085019450602081019050612527565b868310156125695784890151612565601f891682612478565b8355505b6001600288020188555050505b505050505050565b7f50726f6f66206e6f7420666f756e64206f7220616c72656164792064656c65745f8201527f6564000000000000000000000000000000000000000000000000000000000000602082015250565b5f6125d8602283611a7b565b91506125e38261257e565b604082019050919050565b5f6020820190508181035f830152612605816125cc565b9050919050565b7f50726f6f66206e6f7420666f756e6420696e2057616c727573000000000000005f82015250565b5f612640601983611a7b565b915061264b8261260c565b602082019050919050565b5f6020820190508181035f83015261266d81612634565b9050919050565b7f77616c7275733a2f2f00000000000000000000000000000000000000000000005f82015250565b5f6126a8600983611f43565b91506126b382612674565b600982019050919050565b7f2f000000000000000000000000000000000000000000000000000000000000005f82015250565b5f6126f2600183611f43565b91506126fd826126be565b600182019050919050565b5f6127128261269c565b915061271e8286612261565b9150612729826126e6565b91506127358285612261565b9150612740826126e6565b915061274c8284612261565b9150819050949350505050565b7f4e487b71000000000000000000000000000000000000000000000000000000005f52601160045260245ffd5b5f612790826118ed565b915061279b836118ed565b92508282026127a9816118ed565b915082820484148315176127c0576127bf612759565b5b5092915050565b5f6127d1826118ed565b91506127dc836118ed565b92508282019050808211156127f4576127f3612759565b5b92915050565b5f612804826118ed565b91507fffffffffffffffffffffffffffffffffffffffffffffffffffffffffffffffff820361283657612835612759565b5b600182019050919050565b7f4e487b71000000000000000000000000000000000000000000000000000000005f52601260045260245ffd5b5f612878826118ed565b9150612883836118ed565b92508261289357612892612841565b5b828204905092915050565b5f6128a8826118ed565b91506128b3836118ed565b92508282039050818111156128cb576128ca612759565b5b92915050565b5f6128db826118ed565b91506128e6836118ed565b9250826128f6576128f5612841565b5b828206905092915050565b5f60ff82169050919050565b5f61291782612901565b915061292283612901565b9250828201905060ff81111561293b5761293a612759565b5b92915050565b5f61294b82612901565b915061295683612901565b9250828203905060ff81111561296f5761296e612759565b5b9291505056fe68747470733a2f2f6d6f636b2d77616c7275732e6578616d706c652e636f6d2f6170692f7631a2646970667358221220294eefa2214a448398346aac1b70ebbcc55f239c361ee19054532ba880535dbf64736f6c634300081e0033","linkReferences":{}},"methodIdentifiers":{"MOCK_WALRUS_ENDPOINT()":"e14dba93","allWalrusIds(uint256)":"caba2478","deleteProof(string)":"7d7ae52d","getTotalProofs()":"9b1bc0c9","getWalrusEndpoint()":"341819db","getWalrusEntry(string)":"0b0bb3f9","getWalrusIdByIndex(uint256)":"212051e8","getWalrusIdByProofHash(bytes32)":"eff65b07","owner()":"8da5cb5b","proofExists(bytes32)":"d938d202","proofHashToWalrusId(bytes32)":"98f7eba0","renounceOwnership()":"715018a6","retrieveProof(string)":"1ebadbab","storeProof(bytes,bytes32)":"22d65e76","transferOwnership(address)":"f2fde38b","walrusEntries(string)":"81829967"},"id":35}